:020000040800F2
:1000000080C101205D290008E1030008E303000826
:10001000E5030008E7030008E9030008000000000A
:10002000000000000000000000000000EB030008DA
:10003000ED03000800000000EF030008F1030008D2
:100040007729000877290008772900087729000810
:100050007729000877290008772900087729000800
:1000600077290008772900087729000877290008F0
:1000700077290008772900087729000877290008E0
:1000800077290008772900087729000877290008D0
:1000900077290008772900087729000877290008C0
:1000A00077290008772900087729000877290008B0
:1000B00077290008230A00087158000877290008EA
:1000C0007729000877290008772900087729000890
:1000D000772900081D2800087729000877290008DB
:1000E0007729000877290008772900087729000870
:1000F0007729000877290008772900087729000860
:1001000077290008772900084F0A00087729000896
:10011000772900087729000877290008890A00084C
:10012000772900087729000877290008772900082F
:1001300077290008430D000877290008772900086F
:10014000772900087729000877290008772900080F
:1001500077290008772900087729000877290008FF
:1001600077290008772900087729000877290008EF
:1001700077290008772900087729000877290008DF
:100180007729000877290008DFF80CD00DF0E0F897
:10019000004800479D01000880C101207A4B86B0CD
:1001A0000DF1080C0FCB8CE80F0001F09FFF774991
:1001B000774802F016F87749774802F01FF8774938
:1001C000774802F039F802A9012002F094F9401CA6
:1001D00000D1FEE701A90F2002F08DF9401C02D1E9
:1001E00070A00DF011F99DF804000028F2D000F085
:1001F00046FBA82004F0ECFF4FF4A06002F0C0FB27
:100200004FF4E13002F0B4FA6D4841685420884759
:1002100000F058FB02F038FB00F03EFE00200CF02E
:1002200056FF01200CF053FF02200CF050FF654CEC
:100230004FF4966506E000BF00F0E5F9206128461E
:1002400005F007F800F0DFF90028F5D14FF4FA7552
:10025000284604F0FEFF4FF4427A41F6947B0AE010
:10026000504600F06BFF002320615A4602211846D9
:1002700001F063F9606020690028F1D000F084FA91
:10028000284604F0E6FF504D504F4FF0000823E0A1
:10029000288800904E4B01224A49002001F0DBFBE8
:1002A0000026DFF830910CE000953868484B00EBF1
:1002B000800101EBC00149440D22002001F06AFCDD
:1002C000606160690D28EFD1C4F81480A068761CC5
:1002D000401CA060962EF4DBA0689728D8DB322063
:1002E00004F0B7FF23E028880090394B01223549FC
:1002F000002001F0B0FB0026DFF8DC900CE0009558
:100300003868334B00EB800101EBC00149440D22FA
:10031000002001F03FFC606160690D28EFD1C4F856
:100320001480E068761C401CE060962EF4DBE068E8
:100330009728D8DB40F2E73540F24731284600F0F5
:10034000F1FA5321312000F019FB5321284600F027
:100350003DFB0121214802F0FFFF55465E4628463D
:1003600000F0ECFE30B11C28F9D1002001F030FA89
:100370006060F4E7002332460221184601F0DDF800
:1003800060600028EBD0FEE7ACD800089D21000893
:1003900093210008B3210008A72100084321000889
:1003A00069210008556E6B6E6F776E20504859209A
:1003B0004C696E6B207374617574732E0D0A0000A6
:1003C00054010020000000203C000020A800002074
:1003D0003E00002004030020A20A0020000C004080
:1003E0007047FEE7FEE7FEE7FEE77047704770479D
:1003F000704700000CB500205449019000900A6835
:1004000042F480320A604FF4A0430A6802F40032DA
:100410000092019A521C0192009A12B9019A9A42D2
:10042000F3D10A68920334D5012000904748403048
:10043000026842F0805202604548026842F440423D
:1004400002604248083002680260026842F40042DA
:100450000260026842F4A0520260031F3D4A1A6023
:100460000A6842F080720A600A689201FCD53A4A32
:1004700040F205711160016821F00301016001681B
:1004800041F0020101600168C1F381010229FAD142
:100490000CBD00900CBD314810B5016841F47001ED
:1004A00001602A48016841F001010160274A0021EA
:1004B0000832116002682A4B1A400260031D294A63
:1004C0001A60026822F48022026020480C30016029
:1004D000FFF790FF21494FF000608039086010BDA0
:1004E00070B51A4C083420681F4A10F00C011F48E0
:1004F00004D05510042903D0082903D002601BE062
:10050000056019E01149091D0B68C3F380560B689B
:1005100003F03F0316B1B5FBF3F201E0B2FBF3F2D7
:100520000B680968C3F388135A43C1F30141491C9E
:100530004900B2FBF1F1016021680C4AC1F30311DB
:10054000121D515C0268CA40026070BD0038024052
:100550000070004008544007003C024088ED00E075
:10056000FFFFF6FE103000240024F4001C000020E1
:10057000524810B5016800200CF049FE504801684F
:10058000BDE8104000200CF042BE10B507F0EEFDB3
:10059000014600200CF044FE484C43F69C6120606C
:1005A00000200CF03DFE46490860216811B108B1F9
:1005B000002010BDFFF7DCFF012010BD70B54149E0
:1005C0000968C0248471A825C571012202726523BF
:1005D0004372022303700023437083700E0CC670B5
:1005E0000E0A067141718472C57202730A21417349
:1005F000FF218173C173017443748474C5740275DF
:100600004275837570BD00B587B000F00BFC10B962
:10061000FFF7BBFF10B1012007B000BD00F004FBE5
:1006200008B10220F8E707F091FD2748FFF7C6FF61
:10063000254805AB817A50F80B2F41EA022103913E
:10064000C178426841EA02210491C17980681F4A59
:1006500041EA002005901E4900208DE807001A4855
:1006600004AA03A9183007F087FE48B116481830CD
:1006700007F0B1FE1448183007F0FCFE0020CBE76D
:100680000320C9E71048183006F0F6BA10B5114C2F
:100690002168A068411AFA2902D3206009F034FBCE
:1006A000D4E90110411A41F28832914204D36060CA
:1006B000BDE8104005F08ABD10BD000068020020B2
:1006C000D0020020107AFF1F40120020A36A000809
:1006D000ED6C00083000002010B5642100200CF003
:1006E0009FFD01000DD06E48C0228271A822C27108
:1006F0000122027210224272BDE8104000200CF06C
:1007000086BD10BD2DE9F047664EDDF820A0994664
:100710005FEA02080F464FF000052CD00020307031
:100720004446C5F101006289824200D9024670192F
:1007300061680CF0A3FD60890544012D02D824688E
:10074000002CEED1D9F8001055487960A7F814A014
:100750008171B988090AC1717968090C01727968D7
:10076000090E4172707840F0400070704046BDE85C
:10077000F04707F0E3BE08460CF06FF9707820F000
:1007800020007070BDE8F08738B5FFF7A5FFC821DD
:1007900000200CF045FD00281AD00CF07DF9414CEA
:1007A000E06098B13E498A79D1F8071042EA012108
:1007B00000914FF4AF6269460CF02CF930B94FF458
:1007C00096623949E0680CF04CF810B10020A06046
:1007D00038BD0022AFF2D301E0680CF046F9607832
:1007E00040F0200060700120F1E770B5054603225B
:1007F0000D21002007F0F7FE040032D0294996228F
:100800002A4E486890FBF2F302FB1303336090FB1F
:10081000F2F602FB1606264A1EB916686EB10026CD
:1008200016601268002A03EB830202EBC30206D0B3
:10083000204B1A446260204A05E00126F0E71F4B76
:100840001A4462601E4A401C13685B1E13604860B5
:10085000214628460CF0DBF82046BDE8704007F042
:100860006DBE70BD10B504460CF0F7F820460CF0D4
:10087000FFF80C48417821F02001417010BD1CB5F3
:1008800008490020103101F036FF064901201031DF
:1008900001F031FF6946082001F02DFE1CBD00006B
:1008A0004012002044000020C8D800086C0000203E
:1008B00018000020A20A00200C00002004030020E1
:1008C000080000202DE9FC410121202002F035FB29
:1008D0004FF4C060009001268DF8046000248DF86C
:1008E00006408DF8074003258DF805500C4F6946EA
:1008F000384602F009F9022000908DF804608DF866
:1009000006408DF807408DF805506946384602F0DC
:10091000FBF840F20261384602F070F9BDE8FC8154
:10092000001402407FB50D4604460121022002F06A
:1009300022FB00200194ADF800508C4CADF8020071
:10094000ADF808006946204602F08EFC01221146EF
:10095000204603F012F80121204602F0FDFC1D2084
:100960008DF80C0002208DF80D008DF80E0001208E
:100970008DF80F0003A802F008F87FBD7FB50D4683
:1009800004460121082002F0F6FA00200194ADF897
:100990000050774CADF80200ADF8080069462046DB
:1009A00002F062FC01221146204602F0E6FF3220EE
:1009B0008DF80C0001208DF80D0002218DF80E102D
:1009C0008DF80F0003A801F0E0FF7FBD7FB50C4656
:1009D00005460121202002F0CEFAADF80040019535
:1009E0000024644DADF80240ADF808406946284641
:1009F00002F03AFC01221146284602F0BEFF012116
:100A0000284602F0A9FC37208DF80C008DF80D4027
:100A100001208DF80E008DF80F0003A801F0B5FF3E
:100A20007FBD10B5514C0121204602F0BAFF0128CC
:100A300003D1514908680A30086050494868401C91
:100A400048602046BDE81040012102F0B6BF70B5F5
:100A5000474D0121284602F0A4FF484C01280AD145
:100A600047480068FFF7C1FE2168491C21609529AD
:100A700001DB00202060A068401CA0602846BDE883
:100A80007040012102F099BF2DE9F84FDFF8E4B082
:100A90000121584602F085FF012861D1394EDFF867
:100AA000E890DFF8E88030680027344C384D0128A2
:100AB00027D1B9F800000090364B012236490020BA
:100AC00000F0C9FFDFF8D4A0E7600EE0CDF8009099
:100AD000D8F800002F4B00EB800101EBC00151441E
:100AE0000D22002001F056F8286028680D28EDD16D
:100AF0002F603068401C3060E068401CE060962841
:100B0000F3DB274E3068012827D1B9F800000090A8
:100B1000204B01222049002000F09DFFDFF884A037
:100B200027610EE0CDF80090D8F80000194B00EBDB
:100B3000800101EBC00151440D22002001F02AF890
:100B4000286028680D28EDD12F603068401C306087
:100B50002069401C20619628F3DB6069401C6061BD
:100B60005846BDE8F84F012102F027BF00040040BD
:100B7000000C004000140040380000206C000020F1
:100B800050000020080000203C000020A8000020A9
:100B9000140000203E00002000000020040300207C
:100BA0000C000020A20A002010B5B0B001214FF0C7
:100BB000606002F0C2F903F0E1F903F0F6FD00BF56
:100BC00003F0F9FD0128FBD0684603F0E3F90120AA
:100BD000009000204FF40071CDE90A10090407903D
:100BE0001190CDE920010E90149013900A111590E8
:100BF0002590269023920420CDE9280180032A9095
:100C000080012B9040122C9040002E9000216846CD
:100C100003F052FAC4B2012C03D10121944803F02D
:100C2000DCFD30B0204610BDFEB501214D2002F0A4
:100C300084F90121880302F0A8F9012002F06FFA7B
:100C40008620032500908DF8055002208DF80400C1
:100C50000024884E8DF806408DF8074069463046DE
:100C600001F052FF0B220121304601F0D6FF0B228A
:100C70000221304601F0D1FF0B220721304601F05E
:100C8000CCFF32207C4E00906946304601F03CFF9C
:100C90000B220121304601F0C0FF0B220421304617
:100CA00001F0BBFF0B220521304601F0B6FF4FF4E7
:100CB000D040724E00906946304601F025FF0B226D
:100CC0001146304601F0A9FF0B220D21304601F0FC
:100CD000A4FF0B220E21304601F09FFF8DF8055036
:100CE000012508208DF8045000908DF806408DF8FD
:100CF00007406946624801F007FF624EC6F88C4221
:100D0000322006F5237604F0A4FA35603D208DF8F4
:100D100008008DF809408DF80A408DF80B5002A8A4
:100D200001F033FEFFF740FF08B10020FEBD0120B7
:100D3000FEBD10B51F21002003F096F9C0F382001C
:100D400010BD10B5504C01E0FFF79CFC206803F08B
:100D500012FD0028F8D1402003F050FDBDE81040FE
:100D60004FF4803003F04ABD30B5474C00231A469B
:100D700021680D68002D0BDA444913464C6924069E
:100D800002D580244C618B6002604260826030BD7D
:100D90000D682D040AD40D68ED0507D50D68AD0565
:100DA00004D50A68C2F30D438A681B1FCD6825600D
:100DB0000360C0E9012130BD354A11680B68002B82
:100DC00001DA00207047C0F30C004860086840F06A
:100DD00040500860086840F0004008602B484369B4
:100DE0005B0703D50423436100234360C868106098
:100DF00001207047264800688068704710B5254C70
:100E0000002021680CF003FA002061680CF0FFF963
:100E10000020A1680CF0FBF9E168BDE8104000205B
:100E20000CF0F5B970B5A02100200CF0F9F9194CBF
:100E3000A021206000200CF0F3F941F6C455606059
:100E4000294600200CF0ECF9A060294600200CF0A7
:100E5000E7F9E060216831B1616821B1A16811B1A1
:100E600008B1002070BDFFF7C9FF012070BD000070
:100E7000400001000000024000080240001802404B
:100E8000000C024000804142FC0000200090024023
:100E9000F8000020840000202DE9F04198B00121E5
:100EA000782002F04AF84FF63370169002208DF841
:100EB0005C0003208DF85D0000248DF85E40012069
:100EC000DFF868828DF85F0016A9404601F01CFE2D
:100ED0004FF68370964D169016A9284601F014FE21
:100EE0004FF23F00934E169016A9304601F00CFECB
:100EF00040F23F40904F169016A9384601F004FE8C
:100F00000C220021404601F088FE0C2201214046BF
:100F100001F083FE0C220421404601F07EFE0C22EB
:100F20000521404601F079FE0C220821404601F0DF
:100F300074FE0C220921404601F06FFE0C220A21AA
:100F4000404601F06AFE0C220B21404601F065FE8E
:100F50000C221146404601F060FE0C220D21404655
:100F600001F05BFE0C220E21404601F056FE0C22E1
:100F70000F21404601F051FE0C220021284601F0CD
:100F80004CFE0C220121284601F047FE0C220721CD
:100F9000284601F042FE0C220821284601F03DFEC1
:100FA0000C220921284601F038FE0C220A2128468D
:100FB00001F033FE0C220B21284601F02EFE0C22FC
:100FC0001146284601F029FE0C220D21284601F089
:100FD00024FE0C220E21284601F01FFE0C220F21B8
:100FE000284601F01AFE0C220021304601F015FEC1
:100FF0000C220121304601F010FE0C220221304665
:1010000001F00BFE0C220321304601F006FE0C22FB
:101010000421304601F001FE0C220521304601F08A
:10102000FCFD0C221146304601F0F7FD0C220D218B
:10103000304601F0F2FD0C220E21304601F0EDFDAC
:101040000C220F21304601F0E8FD0C220021384629
:1010500001F0E3FD0C220121384601F0DEFD0C22F7
:101060000221384601F0D9FD0C220321384601F057
:10107000D4FD0C220421384601F0CFFD0C220521BD
:10108000384601F0CAFD0C220A21384601F0C5FDA0
:101090000920CDE910400F94149404201594CDE953
:1010A000000412941020CDE902401394049400022D
:1010B000CDE908400FA80794CDE90C4005940694AB
:1010C0000E900A940B94684603F0C8FC012104209A
:1010D00003F059FD18B0BDE8F08110B5002A07D023
:1010E0004FF0D04310F8014B5C54491C521EF7D10D
:1010F00010BD002A08D000BF4FF0D0435B5C491CF4
:1011000000F8013B521EF7D1704703B5014601229A
:1011100001A8FFF7E2FF0CBD08B5014601226846B1
:10112000FFF7E7FF9DF8000008BD0000000C02403B
:1011300000100240001402400018024070B504463E
:10114000E34988688047E2490869804700BFE04872
:10115000C169C4F307408847DD48C169C4F307206B
:101160008847E0B2DA4AD1698847D9498869804717
:101170000546D74948698047D549C8688047284609
:1011800070BD70B504460D46D14988688047D04986
:101190000869804744F00404CD48C169C4F307409E
:1011A0008847CB48C169C4F307208847E0B2C84AE2
:1011B000D1698847C648C16928468847C4494869F3
:1011C0008047C349C868804770BD2DE9F041044697
:1011D0000E4617460025A846BD4988688047BC4989
:1011E0000869804700BFBA48C169C4F3074088470F
:1011F000B748C169C4F307208847E0B2B44AD1694F
:10120000884700BF06E0B249886980477055681C6E
:1012100085B200BFBD42F6DBAD4948698047AC49A5
:10122000C8688047BDE8F0812DE9F04104460E46CC
:1012300017460025A846A64988688047A44908693A
:10124000804744F00404A248C169C4F307408847BA
:101250009F48C169C4F307208847E0B29C4AD1691E
:10126000884700BF06E0705D994AD1698847681CCD
:1012700085B200BFBD42F6DB954948698047944975
:10128000C8688047BDE8F08170B504460025002697
:1012900000BFA100491C4FF4005202EBC100FFF750
:1012A0004DFF0646A100491C4FF4005202EBC1015C
:1012B00001F58070FFF742FF00EB062086B2AEB169
:1012C000A100491C4FF4005202EBC100FFF736FFAA
:1012D0000546A100491C4FF4005202EBC10101F583
:1012E0008070FFF72BFF00EB052085B2B542D0D10F
:1012F000284670BD70B504460025002600BFA10039
:10130000491C4FF4185202EBC100FFF717FF0646C5
:10131000A100491C4FF4185202EBC10101F5807085
:10132000FFF70CFF00EB062086B2AEB1A100491C0E
:101330004FF4185202EBC100FFF700FF0546A10071
:10134000491C4FF4185202EBC10101F58070FFF700
:10135000F5FE00EB052085B2B542D0D1284670BD20
:101360002DE9F04704460F4616460025A8460EB95B
:10137000BDE8F087A100491C4FF4105202EBC101F7
:1013800001F58070FFF7DAFE8146A100491C4FF499
:10139000105202EBC100FFF7D1FE09EB002085B22D
:1013A0002902A000801C01EBC008324639464046A5
:1013B000FFF73AFFA81985B22912A200521C4FF478
:1013C000105303EBC200FFF7DCFEE9B2A200521C8F
:1013D0004FF4105303EBC20202F58070FFF7D1FE09
:1013E00000BFC5E72DE9F04704460F461646002525
:1013F000A8460EB9BDE8F087A100491C4FF4205261
:1014000002EBC10101F58070FFF798FE8146A10053
:10141000491C4FF4205202EBC100FFF78FFE09EB8D
:10142000002085B22902A000C01C01EBC008324692
:1014300039464046FFF7C9FEA81985B22912A20015
:10144000521C4FF4205303EBC200FFF79AFEE9B29F
:10145000A200521C4FF4205303EBC20202F580702D
:10146000FFF78FFE00BFC5E72DE9F04104460E46A9
:101470000025A100491C4FF4205202EBC10101F5E7
:101480008070FFF75BFE0746A100491C4FF4205215
:1014900002EBC100FFF752FE07EB002085B2A8194E
:1014A00085B22912A200521C4FF4205303EBC20054
:1014B000FFF767FEE9B2A200521C4FF4205303EB82
:1014C000C20202F58070FFF75CFEBDE8F08100000B
:1014D000BC00002070B50446082802D94FF0FF3048
:1014E00070BD4FF4847000EB441005461021FFF7E7
:1014F00048FE2846FFF722FE0028FAD14FF402707A
:1015000000EB44101F21FFF73CFEFF480121A140E2
:1015100082888A43FD498280002021F81400FA491C
:10152000183108554FF4427000EB44142046FFF781
:1015300005FE0028FAD1012070BD2DE9F0471E46B6
:1015400015460F460446082803D94FF0FF30BDE882
:10155000F087ED484FF00109012FC0F8089006D040
:10156000022F04D0042F02D06FF00400EFE7022115
:10157000816016F0060F6FF0050111D196B1012FB1
:1015800002D0022F0ED103E016F0210F08D009E09F
:10159000B20601D5320603D5F20603D5320601D4D0
:1015A0000846D4E70321804681602046FFF792FF7A
:1015B000600106F0F00139430830FFF7E2FD6DB934
:1015C000B8F80050691C89B2A1F57F42A8F8001054
:1015D000F03A03D14FF44041A8F800104FF4816075
:1015E000290A00EB4410FFF7CCFD4FF4A160E9B2EB
:1015F00000EB4410FFF7C5FD4FF4847000EB44107E
:1016000007460121FFF7BDFD04204546C8F8080044
:101610003846FFF793FD0028FAD106F001006988EB
:10162000A04008436880A98809FA04F08143A98092
:10163000B649002021F81400B34918310855062096
:10164000A8604FF4427000EB44100646FFF776FDA9
:1016500028613046FFF772FD0028FAD00720A86005
:1016600060B274E770B50546082802D94FF0FF3024
:1016700070BD68010830FFF761FD00F00F00012820
:1016800002D06FF0040070BD4FF4427000EB4510C3
:101690000646FFF753FD132802D06FF0020070BD1D
:1016A0004FF4847000EB451004460221FFF769FDFA
:1016B0002046FFF743FD0028FAD103E02046FFF75C
:1016C0003DFD30B13046FFF739FD1428F6D1012039
:1016D00070BD2846FFF7FEFE6FF0030070BD2DE9D8
:1016E000F04116460F460446082803D94FF0FF3054
:1016F000BDE8F08160014FF001080830FFF71EFDE2
:1017000000F00F00012802D06FF00400F0E74FF462
:10171000427000EB44100546FFF710FD132802D07D
:101720006FF00200E4E738787978BA7801EB0021AD
:1017300002EB012100EB0120411C2CD058B36EB309
:1017400040F6084000EB441004223946FFF76CFDD8
:1017500041F20800310A00EB4410FFF712FD41F29C
:101760000810F1B200EB4410FFF70BFD4FF484704A
:1017700000EB441006460421FFF703FD3046FFF757
:10178000DDFC0028FAD1604908FA04F049880842D3
:1017900013D00020ACE76FF00B00A9E76FF00A0050
:1017A000A6E72046FFF7CAFC00070AD52046082115
:1017B000FFF7E7FC6FF00C009AE74FF4027000EBC4
:1017C00044142846FFF7BAFC1728EAD101208FE716
:1017D00070B50446082802D94FF0FF3070BD600193
:1017E00001250830FFF7AAFC00F00F00012801D006
:1017F000A81F70BD4FF4847000EB4410064608210A
:10180000FFF7BFFC3046FFF799FC0028FAD13E48AD
:10181000A5408188A9438180408805420CD00020E2
:1018200070BD3046FFF78AFC00070DD52046FFF754
:1018300051FE6FF00C0070BD4FF4027000EB4416C7
:101840004FF4427000EB44152846FFF777FC002860
:10185000E7D1012070BD2DE9F05F15468B460646A5
:10186000082803D94FF0FF30BDE8F09F7001012434
:101870000830FFF763FC00F00F00012801D0A01F23
:10188000F2E775B14FF4427000EB46100746FFF7E0
:1018900055FC6FF0060A172806D01C2804D05046C5
:1018A000E2E76FF00D00DFE7DFF85C80B440B8F8E6
:1018B0000400044213D04FF4027000EB461081463E
:1018C000FFF73CFC00F01F00C10629D54846102157
:1018D000FFF757FCB8F80410A143A8F8041041F62C
:1018E000087000EB4610FFF729FC4FF6FF7101EA84
:1018F0008020854200D905463046FFF7C5FC814669
:101900003846FFF71BFC03E09400002088120020FB
:1019100017280DD01C280BD03046FFF7DBFDBEE7A3
:1019200000070BD53046FFF7D5FD6FF00C009BE7A5
:10193000B8F80200044203D04D4501D9002093E7D6
:101940004D45D9D82A4659463046FFF709FD4FF490
:10195000847000EB461006462021FFF712FC30464B
:10196000FFF7ECFB0028FAD1B8F8041028460C4326
:10197000A8F8044078E72DE9F74F144605460828F3
:1019800003D94FF0FF30BDE8FE8F68010126083013
:10199000FFF7D4FB00F00F00012801D0B01FF2E7E1
:1019A00024B341F6086000EB4510FFF7C7FB4FF684
:1019B000FF7101EA8020A04200D204464FF4427039
:1019C00000EB451841F60870DFF828A600EB451B30
:1019D00006FA05F92846FFF78DFC06464046FFF754
:1019E000ADFB172816D01C2803D00DE06FF00D00BA
:1019F000C9E7CEB92846FFF747FC07465846FFF728
:101A00009DFBB7EB802F05D12846FFF763FD6FF0F4
:101A10000600B8E7BAF8021019EA010F02D01EB9A1
:101A20000020B0E7002ED5D0A64200D23446224690
:101A300028460199FFF7D6FC4FF4847000EB45105F
:101A400005464021FFF79DFB2846FFF777FB00285E
:101A5000FAD1204697E72DE9F0479946089E1546AA
:101A60008A460446082802D94FF0FF306FE560012E
:101A70004FF001080830FFF761FB00F00F0002286B
:101A800004D0042802D06FF0040060E58DB1D9F8CD
:101A9000000088B19EB14FF4427000EB441007463D
:101AA000FFF74CFB42280DD022280BD06FF0060028
:101AB0004DE56FF00D004AE56FF00B0047E56FF064
:101AC0000A0044E540F6084000EB44100422494671
:101AD000FFF7AAFB41F20800310A00EB4410FFF7C0
:101AE00050FB41F20810F1B200EB4410FFF749FB44
:101AF00041F6087000EB4410FFF720FB4FF6FF7132
:101B000001EA8020854200D9054608FA04F6DFF88C
:101B1000E4842046FFF7B8FB81463846FFF70EFB0A
:101B200038B1B8F80200064206D04D4504D900206D
:101B30000DE56FF003000AE54D45EAD82A46514607
:101B40002046FFF70DFC4FF4847000EB441006466E
:101B50002021FFF716FB4FF4027000EB44143046CF
:101B6000FFF7ECFA0028FAD12046FFF7E7FA00F079
:101B70001F00C10605D520461021FFF702FB2846AD
:101B8000E5E40007F0D520460821FFF7FAFA6FF0E8
:101B90000C00DCE42DE9FF4F002583B09846174682
:101BA0000446082803D9681E07B0BDE8F08F60011D
:101BB0000830FFF7C3FA834600F00F00022804D074
:101BC000042802D06FF00400EEE72FB1DFF828946C
:101BD00039F8140018B11FE06FF00D00E4E74FF47E
:101BE000427000EB4416012000FA04FA2046FFF789
:101BF00081FB05463046FFF7A1FA30B1FD4949881F
:101C00001AEA010F06D01DB106E06FF00300CBE722
:101C10000020C9E7002DE9D0DFF8D8A300200AF1A1
:101C2000180A0BF007010AF804004FF484704FF013
:101C3000800B00EB441602292AD0042964D02946DF
:101C40002046FFF711FC29F8145030464021FFF7D9
:101C500098FA3046FFF772FA0028FAD139F81410D2
:101C6000491B0904090C29F8141005D01AF80410AE
:101C700041F001010AF80410DE484169491C416144
:101C8000962901DB002141610121C16028468BE7D3
:101C900039F814004D4680BB082269462046FFF7FC
:101CA000A1FB30464021FFF76CFA3046FFF746FAB9
:101CB0000028FAD19DF8001088F800109DF8011056
:101CC00088F801109DF8021088F802109DF80310A2
:101CD00088F8031010999DF8040008809DF80510FD
:101CE00001EB0020109908809DF806009DF8071070
:101CF00001EB002025F814002BE02CE02A462046BA
:101D00000499FFF76FFBA0E739F814004D4610BBAC
:101D1000022269462046FFF765FB30464021FFF767
:101D200030FA3046FFF70AFA0028FAD19DF8000091
:101D30009DF8011001EB002080B240F2EA5125F835
:101D40001400884205D92046FFF7C4FB6FF47A706F
:101D50002AE70AF804B035F81450BD42CED93D4602
:101D6000CCE72DE9F0411446082802D94FF0FF30A6
:101D7000BEE44FF40272DFF87CC202EB401742F679
:101D800008426FF0090502EB40132E0CBCF802204C
:101D9000082943D2DFE801F00413171A242B323C40
:101DA000237801218140012B01D023B136E011437A
:101DB000ACF802102AE08A43ACF8022026E0C240C8
:101DC00002F0010018E041F6087101E041F60861F7
:101DD00001EB4010FFF7B2F906EA8020208015E001
:101DE00020781F281AD800F01F0138460CE038462A
:101DF000FFF7A4F900F01F00207007E020781F28EB
:101E00000CD800F01F011846FFF7BBF901206FE462
:101E10001846FFF793F900F01F002070284667E48A
:101E20002DE9F04115460446082802D94FF0FF304D
:101E30005EE4600142F6087208306FF0040702EBBE
:101E4000441608296AD2DFE801F0690408101C254D
:101E5000315E297841F2086002E0297841F20850A9
:101E600000EB4410FFF78DF94BE02888010A41F29E
:101E7000082000EB4410FFF784F9297841F208307C
:101E8000EEE740F6084000EB441004222946FFF735
:101E9000CBF936E02888010A41F2080000EB441033
:101EA000FFF76FF9297841F20810D9E7FFF746F9F3
:101EB00000F00F0001282CD13046FFF73FF910B198
:101EC0006FF0010014E44FF4847000EB44100546F9
:101ED0002221FFF756F94FF4027000EB44140BE097
:101EE0002046FFF72BF9000706D520460821FFF70B
:101EF00048F96FF00C0009E42846FFF71FF90028A5
:101F0000EED101200EE4FFF719F900F00F000128CF
:101F100001D0384606E429783046A3E76FF009007F
:101F200038E470B515460446082802D94FF0FF3052
:101F300070BD600108306FF004060D2978D2DFE82B
:101F400001F0070C1114242D773D4A4E525D6B00B1
:101F5000FFF7F4F800F0F00002E041F2086044E01E
:101F6000287053E041F208503FE041F2083000EBA6
:101F70004410FFF7E3F8064641F2082000EB441056
:101F8000FFF7DCF806EB0020287040F6084000EB75
:101F9000441004222946FFF718F937E041F20810EF
:101FA00000EB4410FFF7CAF8064641F2080000EBC8
:101FB0004410FFF7C3F806EB002026E0FFF7BEF859
:101FC00000F00F0001282DD142F6087000EB4410FC
:101FD000FFF7B4F819E02046FFF756F928802046AD
:101FE000FFF788F928804FF4427000EB4410FFF7A8
:101FF000A5F8B5E79400002088120020FFF79EF8AE
:10200000012805D00C4830F814002880012070BD4C
:102010002046FFF76FF9F8E7FFF790F800F00F00A0
:10202000012802D0304670BD02E00448005D97E709
:102030006FF00100F7E7000088120020AC000020DC
:1020400010B50121084600F078FF0121022000F0C0
:1020500074FF0121080300F098FF0522114658483B
:1020600000F0DBFD05220621554800F0D6FD0522D3
:102070001146544800F0D1FD10BD1CB56020009001
:1020800003208DF8050002208DF8040000208DF853
:10209000060002208DF807006946494800F034FD2B
:1020A0002020009003208DF8050002208DF8040008
:1020B00000208DF8060002208DF80700694641488F
:1020C00000F022FD1020009001208DF80400002077
:1020D0008DF8060001208DF807006946384800F0A9
:1020E00013FD1021364800F089FD1CBD00B585B0F8
:1020F000FFF7A6FFFFF7C1FF0820ADF80C00002096
:10210000ADF800004FF48270ADF802000020ADF889
:102110000400ADF80600ADF808004FF40070ADF80B
:102120000A000020ADF80E000720ADF81000694647
:10213000254802F0F3FE0121234802F07FFF05B09D
:1021400000BD00BF2049098901F002010029F9D032
:102150001D49888100BF1C49098901F0010100293E
:10216000F9D019498989704700BF1748008900F0E4
:1021700002000028F9D0FF201349888100BF1248CF
:10218000008900F001000028F9D00F488089C0B212
:102190007047012080F3108800BF7047002080F353
:1021A000108800BF704710B51021054800F028FDC9
:1021B00010BD10B51021024800F020FD10BD000038
:1021C00000000240000402400030014070477047A8
:1021D0007047704700787047017070470020704763
:1021E0007047F84A18B111B1C2E902017047AFF265
:1021F00023009060AFF22900D0607047F14A18B117
:1022000011B1C2E904017047AFF23B001061AFF2B7
:102210003D0050617047EB4A10B51388DC05FDD5D1
:1022200018B111B1C2E9060110BDAFF257009061BB
:10223000AFF25B00D06110BDE24A10B513889C0577
:10224000FDD518B111B1C2E9060110BDAFF273009E
:102250009061AFF27300D06110BD10B54FF43850EB
:10226000FEF76CFFC00700D0012010BD10B50024A0
:102270004FF43850FEF762FF10F0300F00D0012409
:10228000204610BD10B54FF438542046FEF756FFD7
:1022900020F080012046FEF774FF2046FEF74EFF37
:1022A00040F080012046BDE81040FEF76ABF70B5DF
:1022B00004464FF438563046FEF740FF41064FF0D3
:1022C000FF351AD520F03800012C10D040F038012D
:1022D0003046FEF756FFFFF7D5FF3046FEF72EFFDC
:1022E000012C07D000F0380038B1002070BD40F05C
:1022F0003001EDE700F03000F6E7284670BD10B57C
:1023000004464FF43850FEF719FFC0F380112170D6
:1023100000F0380001220021202811D038280FD0E9
:10232000617010280ED018280CD020280AD0A17077
:10233000082809D0182807D0202805D0E17010BD42
:102340006270EEE7A270F3E7E27010BD10B502789C
:102350000021012A00D140214278012A06D0C2780A
:102360008078012A05D001280BD00CE041F038011B
:1023700009E0012802D041F0080104E041F0180111
:1023800001E041F010014FF43850FEF7FAFEBDE8CD
:10239000104077E710B54FF4B050FEF7CFFE04467B
:1023A0004FF4C050FEF7CAFE04EB002080B210BD0F
:1023B00010B5C1B2040A4FF4B050FEF7E2FE214658
:1023C000BDE810404FF4C050FEF7DBBE10B54FF42F
:1023D000A850FEF7B3FE00F0F0044FF4B850FEF73B
:1023E000ADFE04EB002080B210BD10B5040A00F071
:1023F000F0014FF4A850FEF7C4FE2146BDE810409E
:102400004FF4B850FEF7BDBEF0B585B04FF4106480
:10241000062269462046FEF7D8FE0422950102A94D
:102420002846FEF7D2FE4FF4A066042203A93046E8
:10243000FEF7CBFE4FF47067042204A93846FEF77E
:10244000C4FE80210020FEF79CFE0020FEF776FEF1
:10245000062269462046FEF7E7FE042202A9284626
:10246000FEF7E2FE042203A93046FEF7DDFE042259
:1024700004A93846FEF7D8FE05B0F0BD2DE9F041BD
:102480000D4606460024FFF7BFFF4FF0FF38AEB100
:102490000022B05C521C204452B244B2082AF8DB3D
:1024A000102C17DC002441F60877315D07EB44104F
:1024B000FEF767FE641C64B2082CF6DBCDB1002188
:1024C00008462A5C401C114440B249B20828F8DB97
:1024D000102902DD4046BDE8F081002441F608667F
:1024E000295D06EB4410FEF74CFE641C64B2082C18
:1024F000F6DB0020EFE72DE9F0410C460021024613
:102500004F1E08464FF498554FF4A056102A61D23A
:10251000DFE802F0080B1612191D212B3542454940
:10252000554D515AFFF770FF49E014B1204604F1B0
:102530000801BDE8F041A1E72088FFF756FF3EE023
:10254000FFF744FF05E02088FFF732FF37E0FFF791
:1025500021FF208033E02088010A2846FEF711FE83
:1025600021783046FEF70DFE29E03046FEF7E6FD05
:1025700006462846FEF7E2FD06EB0020E9E7114893
:1025800082782270C27862700279A2704279E27019
:1025900080792071617112E0FFF774FE0FE0204630
:1025A000FFF7D4FE0BE02046FFF7A9FE07E02078F6
:1025B000BDE8F0417BE6FFF759FE07E02070002000
:1025C00089E70000BC000020FFF747FEC0B241B21F
:1025D000491CF3D138467EE770B504464FF4D85015
:1025E000FEF7ACFD20704FF4D050FEF7A7FD054676
:1025F0004FF4C850FEF7A2FD05EB0020608070BDCF
:1026000010B5044601784FF4D850FEF7BAFD608843
:10261000010A4FF4C850FEF7B4FDA178BDE81040A0
:102620004FF4D050FEF7ADBD0020FEF787BD10B5CA
:10263000044630F03A0002D04FF0FF3010BD0020C9
:10264000FEF77CFD40EA04010020FEF79AFD002021
:1026500010BD10B50446014606224FF41060FEF787
:10266000B4FD042204F10E019001FEF7AEFD042238
:1026700004F10A014FF4A060FEF7A7FD0422A11D9A
:102680004FF47060FEF7A1FD34480178A1744178E1
:10269000E17481782175C07860753048401E0078FB
:1026A000A07510BD10B50446014606224FF4106017
:1026B000FEF7BAFD042204F10E019001FEF7B4FD0D
:1026C000042204F10A014FF4A060FEF7ADFD0422DC
:1026D000A11D4FF47060FEF7A7FD2048A17C01709A
:1026E000E17C4170217D8170617DC1701B49A07DBD
:1026F000491E087010BD10B50C4606281DD2DFE833
:1027000000F003070B0F13172046FFF7CBFF12E073
:102710002046FFF79EFF0EE02078BDE8104086E7D8
:10272000FFF782FF207006E02046FFF769FF02E016
:102730002046FFF751FF002010BD4FF0FF3010BDC5
:1027400010B504464FF43850FEF7F8FCC0F3800192
:10275000E170C0F34000A07010BD0000B500002083
:10276000704745490A885206FCD5C2B28A80704734
:10277000F0B587B005460121084600F0DEFB0121D7
:10278000102000F002FC3D4F07220921384600F0DE
:1027900044FA07220A21384600F03FFA4FF4C0609D
:1027A000059002208DF818008DF8190000248DF88E
:1027B0001A4001268DF81B6005A9384600F0A4F9DF
:1027C0000195ADF80840ADF80A40ADF80C40ADF801
:1027D00010400C20ADF80E00274C01A9204601F056
:1027E0000AFA0121204601F08EFA4021204601F02C
:1027F00072FB012240F22551204601F03AFB2520D0
:102800008DF8000003208DF801008DF802008DF88E
:102810000360684600F0B9F807B0F0BD70B5164C1B
:1028200040F22551204601F05FFB00280ED02046E3
:1028300001F098FAC1B2124A1088030406D4440485
:102840004FF0000307D50A2901D0138070BD40F472
:102850000040108070BD0D290AD00A4DC0F30D0450
:102860002955401C80B21080C728F3D9138070BD51
:1028700040F48040108070BD001001400000024014
:10288000DC000020981200201CB50121112000F06E
:1028900054FB1C20009000208DF8040001248DF8CA
:1028A00007406946284800F02FF9009402208DF86F
:1028B00007006946254800F027F91CBD70B50121C5
:1028C000234D002800D029702878224E224C60B178
:1028D000D4F8100270B1D4F80C0258B1D4F8080240
:1028E00040B1D6F80002012804D0D4F81002012823
:1028F0001BD026E00A2002F0ACFC00202870D4F89F
:10290000100250B1D4F80C0248B1D4F8080240B11A
:10291000D6F80002012806D013E0012070BD022085
:1029200070BD032070BD042070BDD4F80C020128D6
:1029300007D1D4F80802012803D1D6F8000200B963
:102940002970002070BD000000100240000002400D
:10295000E400002000004042000042420648804758
:1029600006480047FEE7FEE7FEE7FEE7FEE7FEE774
:10297000FEE7FEE7FEE7FEE797040008890100088E
:102980002849084328490860704730B50F22C478A9
:1029900001780123FCB1244C246801F1E02104F406
:1029A000E064C4F5E064C4F30724C4F10405E24024
:1029B0004478AC408578154025432A0181F80024ED
:1029C000007800F01F018B404009800000F1E020FA
:1029D000C0F8003130BD01F01F008340480980007D
:1029E00000F1E020C0F8803130BD104A11400143B1
:1029F0000D48001F016070470B4A121D0029116825
:102A000001D0014300E08143116070474FF0E021A5
:102A10000428086903D020F004000861704740F0E2
:102A20000400FAE70000FA050CED00E080FFFF1F4C
:102A3000824910B5884206D10121084600F0AFFA5C
:102A4000002101205BE07E49884206D1012102205D
:102A500000F0A5FA0021022051E07A49884206D10F
:102A60000121042000F09BFA0021042047E0764970
:102A7000884206D10121082000F091FA00210820A7
:102A80003DE07249884206D10121102000F087FA0A
:102A90000021102033E06E49884206D10121202018
:102AA00000F07DFA0021202029E06A49884206D101
:102AB0000121402000F073FA002140201FE0664908
:102AC000884206D10121802000F069FA002180208F
:102AD00015E06249884202D1012184150AE060496B
:102AE000884202D10121441504E05E4988420AD19E
:102AF00001210415204600F052FA00212046BDE8CD
:102B0000104000F04CBA10BDF0B50023012403279B
:102B10000D6804FA03F21540954242D1D0F800C086
:102B20005E0007FA06F52CEA050CC0F800C091F823
:102B300004C0D0F800E00CFA06FC4CEA0E0CC0F819
:102B400000C091F804C0BCF1010F02D0BCF1020F2B
:102B50001FD1D0F808C02CEA050CC0F808C091F8C5
:102B600005C0D0F808E00CFA06FC4CEA0E0CC0F8E0
:102B700008C0D0F804C02CEA020CC0F804C04268B7
:102B800091F806C00CFA03FC1FFA8CFC42EA0C0216
:102B90004260C268AA43C260CA79C568B2402A438B
:102BA000C2605B1C102BB3D3F0BD4FF6FF71016008
:102BB0000021017141718171C171704708B541F403
:102BC00080320092C261C1610099C161C169C0696E
:102BD000009008BD0246002012690A4200D0012080
:102BE0007047006980B270470246002052690A426D
:102BF00000D001207047406980B270470183704760
:102C0000418370470AB10183704741837047416136
:102C1000704742694A40426170474B07DB0E9A4059
:102C2000C90810B500EB8100016A0F249C40A14344
:102C30000162016A1143016210BD00000000024000
:102C40000004024000080240000C02400010024054
:102C50000014024000180240001C02400020024004
:102C60000024024000280240F848016841F00101B8
:102C70000160F64A0021083211600268F44B1A40E4
:102C80000260031DF34A1A60F04BF34A84331A6062
:102C9000F04A103A1B1D1A60026822F4802202607A
:102CA000EA480C300160181D01607047E7490022B6
:102CB000891C0A70087070470246002051090129DA
:102CC0000CD002290CD0E1497431096802F01F02CE
:102CD000012393400B4200D001207047DB49F4E709
:102CE000DA497031F1E718B500204FF4A0440090A4
:102CF0003120FFF7E1FF0099491C0091A14201D06A
:102D00000028F5D03120FFF7D7FF002800D00120A0
:102D100018BDCE490A6822F0F80242EAC0000860F5
:102D20007047CE4908607047C849002270310A7068
:102D30000A70012802D0042801D1052008707047CC
:102D4000C7490860704741EA82115A0810B5C54B5F
:102D5000029C03EB02421143014341EA0460BB4978
:102D6000091D086010BDBD4908667047800140EA32
:102D70000170B649843108607047B8498866704769
:102D8000800140EA0160B14940EA02708831086080
:102D90007047B24908677047B049C8647047AB4A8A
:102DA00008321368084323F0EC631843106070473F
:102DB000A64A08321368084323F07843184310608A
:102DC0007047A24A0832116821F0030101431160E3
:102DD00070479E480830006800F00C0070479B4A1E
:102DE0000832116821F0F001014311607047974AE1
:102DF0000832116821F4E051014311607047934992
:102E000008310A6822F4604242EAC0000860704754
:102E100070B58E4A08321168934C11F00C0104D041
:102E20006610042903D0082903D004601BE0066063
:102E300019E08649091D0B68C3F380550B6803F040
:102E40003F0315B1B6FBF3F301E0B4FBF3F30C68F9
:102E50000968C4F388146343C1F30141491C490064
:102E6000B3FBF1F1016011680F2303EA11117F4BED
:102E70005C5C0168E14041601468072505EA942420
:102E80001C5D21FA04F48460126805EA52329A5CEF
:102E9000D140C16070BDC0F30121032908D16B4A44
:102EA0000832116821F4F813714901401943116087
:102EB000664970310A68C0F30B0002430A6070472C
:102EC0006749443908607047654940390860704770
:102ED0006249C1F85C0170475C4A8C321168401E3F
:102EE00021F01F0101431160704758498C310A6875
:102EF0006FF0FF0322F4F85203EB00201043086048
:102F00007047524A8C32116821F44011014311601C
:102F100070474E4A8C32116821F440010143116020
:102F200070474A4A8C32116821F4403101431160E4
:102F300070475049C1F8E0017047444A30320029D7
:102F4000116801D0014300E08143116070473F4A9E
:102F500034320029116801D0014300E0814311603F
:102F600070473A4A38320029116801D0014300E025
:102F7000814311607047354A40320029116801D001
:102F8000014300E0814311607047304A4432002918
:102F9000116801D0014300E08143116070472B4A62
:102FA00010320029116801D0014300E08143116013
:102FB0007047264A14320029116801D0014300E00D
:102FC000814311607047214A18320029116801D0ED
:102FD000014300E08143116070471C4A2032002900
:102FE000116801D0014300E0814311607047174A26
:102FF00024320029116801D0014300E081431160AF
:103000007047124A50320029116801D0014300E094
:103010008143116070470D4A54320029116801D074
:10302000014300E0814311607047084A583200298B
:10303000116801D0014300E0814311607047034AE9
:1030400060320029116817D0014316E000380240B1
:10305000FFFFF6EA10300024003000200000474255
:10306000800E47420000FFFF0024F400E50000202E
:10307000FFFCFF0F00104742814311607047134A65
:103080000029116801D0014300E0814311607047BD
:103090000E4A573A0029117801D0014300E08143DC
:1030A0001170704709481030016841F0807101606B
:1030B00070470146054A0020583A12680A4200D07B
:1030C0000120704701495639087070476438024042
:1030D00010B501218C032046FFF789FF2046BDE88B
:1030E00010400021FFF783BF14490860704714495E
:1030F0000862704710B58A0721F003041149130FC5
:1031000021440F22D1F808489A409443C1F8084856
:10311000D1F8082898400243C1F8082810BD084992
:10312000C1F8DC0070470849086070470349002077
:1031300020310968C90500D50120704700380140D9
:10314000000027420030014000042742FE4910B52C
:10315000884206D101210846FFF749FF00210120DE
:103160005BE0B0F1804F09D0F84988420DD10121D0
:103170000220FFF732FF0021022070E00121084603
:10318000FFF72BFF0021012069E0F149884206D1B9
:1031900001210420FFF721FF002104205FE0ED4919
:1031A000884206D101210820FFF717FF00210820DF
:1031B00055E0E949884206D101211020FFF70DFFB3
:1031C000002110204BE0E549884206D10121202052
:1031D000FFF703FF0021202041E0E149884206D1AA
:1031E00001210220FFF703FF0021022015E0DD4945
:1031F000884202D101210C040AE0DB49884202D155
:1032000001214C0404E0D94988420AD101218C04EF
:103210002046FFF7ECFE00212046BDE81040FFF7F6
:10322000E6BED349884206D101214020FFF7D5FEF2
:103230000021402013E0CF49884206D1012180209F
:10324000FFF7CBFE0021802009E0CB4988420AD15C
:10325000841501212046FFF7C0FE00212046BDE86D
:103260001040FFF7BABE10BD30B50288B64BBC4C5B
:1032700098420DD0A0420BD0B0F1804F08D0B34D92
:10328000A84205D0B24DA84202D0B24DA84203D107
:1032900022F070054A882A43AF4DA84206D0AF4DB0
:1032A000A84203D022F440750A892A4302804A6862
:1032B000C2620A880285984201D0A04201D1897A6F
:1032C00001860121818230BD4FF0FF314160002134
:1032D000018001814180817270470185828270473F
:1032E000028822F070020A430280704741627047F0
:1032F000C1627047406A7047008D7047002901889D
:1033000002D041F0020101E021F00201018070478A
:103310000029018802D041F0040101E021F00401FC
:10332000018070470029018802D041F0800101E04E
:1033300021F0800101807047028822F0080202809B
:1033400002880A4302807047028822F44072028099
:1033500002880A43028070470029018802D041F0A8
:10336000010101E021F001010180704730B5028CBC
:1033700022F001020284028C8388048B22F0020274
:1033800024F073050C882C438D8915434A882A4301
:103390006D4DA84202D0724DA8420DD122F0080511
:1033A000CA8923F440732A4322F004058A882A43F9
:1033B0000D8A1D434B8A2B438380048389684163B4
:1033C000028430BD70B5028C22F010020284028C9F
:1033D0008488038B0D8823F4E6464FF6FF7303EAD7
:1033E000052535438E8922F0200203EA061616438E
:1033F0004A8803EA02123243534EB04202D0584E7A
:10340000B04215D122F08006CA8924F4406403EA50
:103410000212324322F040068A8803EA0212324343
:103420000E8A03EA860626434C8A03EA8404344360
:103430008480058389688163028470BD70B5028CC5
:1034400022F480720284028C8488838B0D8823F09E
:1034500073031D4322F400738E894FF6FF7202EA54
:1034600006261E434B8802EA03233343364EB042FE
:1034700002D03B4EB04215D123F40066CB8924F430
:10348000405402EA0323334323F480668B8802EA24
:10349000032333430E8A02EA061626434C8A02EAC5
:1034A00004143443848085838968C163038470BDB8
:1034B00070B5028C22F480520284048C8288838B43
:1034C0000D8823F4E6464FF6FF7303EA05253543DE
:1034D00024F400568C8903EA043434434E8803EA0A
:1034E00006362643184CA04202D01D4CA04205D1FE
:1034F00022F480440A8A03EA82122243828085836E
:1035000089680164068470BD00210180418081804A
:1035100081608181C18101824182704730B501247F
:10352000058C00F118038C40A543058431B30829AC
:103530002CD0091FC1F34E001844016848F6FF73F0
:103540001940016001681AE00000014000040040D9
:1035500000080040000C0040001000400014004033
:103560000004014000400140004401400048014087
:1035700000180040001C00400020004006E04FF60C
:10358000FF7303EA02221143016030BD03EB5100D7
:1035900001684FF68F73194001600168F3E74163DA
:1035A000704781637047C163704701647047028B45
:1035B00022F070020A4302837047028B4FF6FF73BA
:1035C00022F4E04203EA0121114301837047828B18
:1035D00022F070020A4382837047828B4FF6FF739A
:1035E00022F4E04203EA0121114381837047028BF8
:1035F00022F008020A4302837047028B4FF6FF73E2
:1036000022F4006203EA0121114301837047828B97
:1036100022F008020A4382837047828B4FF6FF73C1
:1036200022F4006203EA0121114381837047028B77
:1036300022F004020A4302837047028B4FF6FF73A5
:1036400022F4806203EA0121114301837047828BD7
:1036500022F004020A4382837047828B4FF6FF7385
:1036600022F4806203EA0121114381837047028BB7
:1036700022F080020A4302837047028B4FF6FF73E9
:10368000C2F30E0203EA0121114301837047828BCA
:1036900022F080020A4382837047828B4FF6FF73C9
:1036A000C2F30E0203EA0121114381837047028CA9
:1036B00022F002020A4302847047028C22F00802C0
:1036C0000A4302847047028C4FF6FF7322F02002F7
:1036D00003EA0111114301847047028C4FF6FF7316
:1036E00022F0800203EA0111114301847047028C29
:1036F0004FF6FF7322F4007203EA012111430184A3
:103700007047028C4FF6FF7322F4006203EA012136
:10371000114301847047028C4FF6FF7322F400526C
:1037200003EA013111430184704710B50123048C71
:103730008B409C430484038C8A401343038410BD54
:1037400010B50423048C8B409C430484038C8A4072
:103750001343038410BD828B22F440628283828BE8
:103760004FF6FF7303EA01210A4382837047828B7D
:1037700022F00C028283828B0A4382837047028B81
:1037800022F440620283028B4FF6FF7303EA0121A9
:103790000A4302837047F0B5048C24F010040484BB
:1037A000078B068C4FF6FF7404EA011527F4734764
:1037B00004EA0331394304EA02220A4326F0A00155
:1037C000294341F0100102830184F0BD028B22F0F5
:1037D0000C020283028B0A43028370472DE9F041F9
:1037E0000D460E884988AA882B8904460EB3042EFC
:1037F00026D0082E268C4FF6FF7028D026F480564F
:103800002684A78B268C00EA022200EA013127F4E5
:1038100073473A4300EA0330104326F420420A4338
:1038200042F48051A0832184E9882046BDE8F0411C
:1038300091E700F062F9E9882046BDE8F041C5E76C
:10384000FFF7A9FFE9882046BDE8F04197E726F495
:1038500080762684A78B268C00EA012100EA0310DB
:10386000104327F0F307384326F420620A4342F45A
:103870008071A0832184E9882046BDE8F04176E785
:1038800000210180418001228280C1800181704736
:103890002DE9F0410C46002649880746012501B96B
:1038A0000226A288012A00D1022520882389002827
:1038B000384610D0FFF76FFFE1883846FFF75FFF0B
:1038C00023892A463146384600F017F9E188384600
:1038D000BDE8F0417AE700F010F9E1883846FFF7DB
:1038E00075FF23892A4631463846FFF754FFE188A1
:1038F0003846BDE8F04142E7406B7047806B704747
:10390000C06B7047006C704710B50A884B88CC8834
:103910001A438B8823431A430B891A434B8989899D
:103920001A430A43A0F8442010BD002101804180C1
:103930008180C1800181418181817047002930F8F7
:10394000441F02D041F4004101E0C1F30E010180A7
:1039500070470029818802D041F0040101E021F084
:103960000401818070470029818802D041F0010163
:1039700001E021F0010181807047002A828901D095
:103980000A4300E08A438281704781827047024681
:103990000020128A0A4200D001207047C9430182E8
:1039A000704702460020138A92890B4202EA010204
:1039B00002D0002A00D001207047C943018270471D
:1039C0001143A0F848107047002A828901D00A43A9
:1039D00000E08A43828170470029818802D041F04B
:1039E000080101E021F0080181807047018921F080
:1039F000070101817047028922F070020A430281A7
:103A0000704700B50346FFF7F6FF188940F007003E
:103A1000188100BD70B516460D46602904464FF06A
:103A2000010231460AD000F068F829462046FFF727
:103A3000E2FF208940F00700208170BDFFF7ABFE58
:103A4000F3E730B504894FF6FF7505EA0323134306
:103A5000E4B20B432343038130BD10B50446FFF7A6
:103A6000F0FF208940F07700208110BD10B504469A
:103A7000FFF7E7FF208940F48040208110BD828855
:103A800022F07002828082880A4382807047028915
:103A900022F00702028102890A43028170470289EB
:103AA00022F08002028102890A430281704770B5C8
:103AB0000589048B068C25F007050D434FF6FC4164
:103AC0000C4040F201110C434FF6FF7101EA031163
:103AD00026F022061143314305810483018470BD21
:103AE0000029818802D041F0800101E021F08001AD
:103AF00081807047A0F85010704770B5048C24F096
:103B000001040484058B048C4FF6FF7606EA031348
:103B1000134325F0F3052B4324F00A020A4342F035
:103B200001010383018470BD10B50446FA48844244
:103B300008D101211020FFF75AFA00211020FFF7C9
:103B400056FA57E0F548844209D101214804FFF7AD
:103B500044FA00214FF40030FFF73FFA4AE0F04802
:103B6000844209D101218804FFF737FA00214FF47C
:103B70008020FFF732FA3DE0EA48844209D1012172
:103B8000C804FFF72AFA00214FF40020FFF725FAB6
:103B900030E0E548844209D101210805FFF71DFA0C
:103BA00000214FF48010FFF718FA23E0DF48844229
:103BB00008D101212020FFF71AFA00212020FFF769
:103BC00016FA17E0DA48844209D101218807FFF785
:103BD00004FA00214FF08040FFF7FFF90AE0D548D2
:103BE000844207D101214005FFF7F7F90021600564
:103BF000FFF7F3F910BD2DE9FF4705460E460024F7
:103C0000A14600BFA046B08900B100BF2C8A24F4B1
:103C10004054F08804432C82AC8941F20C60844308
:103C2000B08831890843718908430443AC81AC8A68
:103C300024F44074B0890443AC826846FFF7E8F886
:103C4000B548854202D0B948854202D1DDF80C90D2
:103C500001E0DDF80890A88900F4004040B109EBCC
:103C6000C90000EB091031684900B0FBF1F707E02B
:103C700009EBC90000EB091031688900B0FBF1F7CE
:103C80006420B7FBF0F004012009642101FB1078E7
:103C9000A88900F4004040B1322000EBC800B0FB1E
:103CA000F1F000F00700044308E0322000EB0810B8
:103CB0006421B0FBF1F000F00F0004432C81BDE85B
:103CC000FF874FF41651016000218180C18001817E
:103CD0000C21418100218181704710B502460020EE
:103CE000108A20F470600B884C8823438C8823430F
:103CF000CC8823431843108210BD002101804180ED
:103D00008180C180704721B1828942F40052828152
:103D100004E082894DF6FF731A4082817047028B5E
:103D200002F47F420283028B0A430283704721B16F
:103D3000828942F40042828103E08289C2F30E024A
:103D40008281704721B1828A42F40062828204E05B
:103D5000828A4FF2FF731A4082827047C1F30802D1
:103D60008280704701468888C0F308007047028A45
:103D70004FF6F0731A400282028A0A4302827047A9
:103D800021B1828942F00202828104E082894FF6E9
:103D9000FD731A408281704782894FF2FF731A4087
:103DA000828182890A4382817047028A4FF6DF73DB
:103DB0001A400282028A0A430282704721B1028AB3
:103DC00042F48042028204E0028A4BF6FF731A40FA
:103DD00002827047818941F001018181704721B1E0
:103DE000828A42F00802828204E0828A4FF6F773E8
:103DF0001A4082827047028BD2B20283028B42EA5F
:103E000001220283704721B1828A42F0200282821D
:103E100004E0828A4FF6DF731A408282704721B134
:103E2000828A42F01002828204E0828A4FF6EF73A7
:103E30001A4082827047828A4FF6FB731A40828250
:103E4000828A0A438282704721B1828A42F002024A
:103E5000828204E0828A4FF6FD731A4082827047A4
:103E60001AB1838A0B43838202E0838A8B43838265
:103E70007047F0B50346002400260025002040F6D8
:103E80006A17B94200D100BF1846C1F3421401F0CD
:103E90001F06012707FA06F5012C01D10C3004E0BA
:103EA000022C01D1103000E014301AB107682F4302
:103EB000076002E00768AF430760F0BD02460020DC
:103EC000B1F5007F00D100BF13880B400BB101207A
:103ED00000E00020704701F40072B2F5007F00D1CD
:103EE00000BFCA430280704770B502460024002319
:103EF0000025002040F66A16B14200D100BFC1F390
:103F0000421501F01F03012606FA03F3012D13D118
:103F10009689334017E00000001001400044004043
:103F200000480040004C0040005000400014014098
:103F300000780040007C0040022D02D1168A3340F8
:103F400001E0968A33400C12012606FA04F4168822
:103F5000344013B10CB1012000E0002070BD10B559
:103F60000022002340F66A14A14200D100BF0A12C9
:103F700001249440A3B2DC43048010BD10B501219C
:103F80004C062046FFF70BF82046BDE81040002104
:103F9000FFF705B8012101600021416081604FF405
:103FA0008042C160C0E90412D2108161C0E90712E9
:103FB00041628162C1620163416340228163C0E961
:103FC0000F122022C0E91121C1640165416581659C
:103FD0008022C165C0E918128166C1660167416728
:103FE000D2048167C0E91F125210C0E921211311C8
:103FF000C0E92331C0F89410C0F89810C0F89C10A4
:10400000C0E928125212C0F8A8209201C0F8AC20D2
:104010005212C0E92C21C0F8B810704738B50023FF
:104020000093F84B1C694FF6FF7504F01C0405EA79
:10403000C02020434FF4F86404EA8111014341F0A9
:1040400003005A611861F0480099491C00911969F0
:10405000C90702D000998142F6D30099814201D16B
:10406000002038BD012038BD18B500220092E54A75
:1040700013694FF6FF7403F01C0304EAC0201843D1
:104080004FF4F86303EA8111014321F0020040F08C
:1040900001001061DC480099491C00911169C907B1
:1040A00002D000998142F6D30099814201D10020CB
:1040B00018BD506980B218BD2DE9F04188B00027C5
:1040C000D04E0097044605973069884620F01C05BD
:1040D00001A8FEF79DFECD490298CD4A01449142C8
:1040E00002D245F0080516E0CA49CB4A0144914284
:1040F00002D245F00C050EE0C849C94A014491427C
:1041000009D3C8490844C849884202D245F0040589
:1041100001E045F0100535614FF4004200214046B2
:10412000FFF77CFF00282DD0C04800F075FC206808
:10413000B0B3B54D05980121401C05904046FFF7EE
:1041400093FF400702D40598A842F3D30598A842EC
:1041500017D04FF48052002140460597FFF75EFFCD
:1041600000280FD005980121401C05904046FFF71C
:104170007BFF800602D40598A842F3D30598A84295
:1041800003D1002008B0BDE8F0811F21404605970B
:10419000FFF76AFFC10604D54FF40061216201E018
:1041A00008E02762400701D5676113E04FF48040C3
:1041B00060610FE0206A6169C00840EA510082B284
:1041C00000214046FFF72AFF0028DBD06FF07F4038
:1041D00000F022FC316896480140D4E90102104306
:1041E000E26854F8103F1A43104362681043A26813
:1041F0001043E26810432269104362691043A269C8
:104200001043E2691043226A1043626A1043084374
:104210003060F4E90A010843D4E90212114308436B
:104220002169084361690843A1690843E1690843BA
:104230007060206AB060606AF060B1694FF64170EA
:104240000140D4E90B021043238D626B42EA034222
:104250001043A26B1043E26B10430843B061D4E9F2
:1042600010010843F06173498A6973480240D4E938
:1042700012031843D4E914352B431843A36D184394
:10428000E36D1843236E1843636E1843A36E1843FF
:1042900010438861D4E91B021043626F54F8783FE1
:1042A0001A431043626840EA8200A268104340F457
:1042B00000000860086840F080000860012061E7A5
:1042C0005C490028886902D040F0020001E020F03B
:1042D00002008861704757490028886902D040F47D
:1042E000005001E020F400508861704745490028E3
:1042F000086802D040F0040001E020F004000860EB
:1043000070474C48816941F48011816170473D4993
:104310000028086802D040F0080001E020F0080002
:104320000860704700B50120FFF7F1FFFFF7E9FFD4
:104330000120FFF7DBFF0120FFF7CDFF01205DF833
:1043400004EBBDE72F4900208969C90700D001208F
:1043500070472C48816941F001018161704729490A
:104360000028886902D040F0010001E020F001003F
:1043700088617047234A01460020926B0A4200D0B0
:10438000012070471F4A01460020926B0A4200D06C
:10439000012070471B4A0029D16B01D0814300E006
:1043A0000143D1637047174B8A88184402640A7826
:1043B000D1F8011042EA012141647047114A0244D8
:1043C000106C030A4B710871506C020ECA70020C1B
:1043D0008A70020A4A70087070470A4A002910441D
:1043E000016C02D041F0004101E021F00041016484
:1043F0007047044A08291044016C1FD041F08041E5
:104400001EE0000000800240FFFF040000D3CEFE4B
:10441000C0E1E40040F1E9FD40787D0100796CFCE9
:10442000005A6202001F0AFA80F0FA02FFFF0F0032
:104430000F8120FF00900240233FDEF821F08041F1
:1044400001647047F74A1044026C22F07C52026407
:10445000026C0A430264704730B5F34B59680A682E
:104460009C68C2F30D42A568121F012D02D9246871
:10447000A46800E08C68CD685D600260C0E901411D
:1044800030BD38B5E84A00240094D2E9013117E084
:104490006D1C00951D68AD0507D51D68ED0504D49C
:1044A0000B6001238B60536808E01D68ED0511D493
:1044B0001D68AD050ED48D686D1C8D60DB68536082
:1044C0001D68002D02DB009D052DE1D304604460D2
:1044D000846038BD4B608C68641C8C608C68012CD7
:1044E00000D10B6053681C688D68C4F30D44241F11
:1044F000012D02D90968896800E09968DD68556076
:104500000460C0E9011338BDF0B5C74D0024296827
:104510000A68002A01DA0020F0BD40F2F453984204
:1045200015D9B0FBF3F6B0FBF3F203FB160606B1A8
:10453000521C012A0BD0C2F10107C7EBC71707EBCA
:10454000470700EB8700561EC0F30C0723E00A68FC
:1045500042F040520A60C0F30C004860086840F026
:1045600000400860C868286018E034B92868D0F8AE
:1045700000C04CF0805CC0F800C04B60B44204D175
:10458000086840F0005008604F60086840F0004044
:104590000860C968641C9442E7D32960A348416954
:1045A000490703D504214161002141600120F0BD8C
:1045B000F0B59D4E00244FF0004744F2F45C551EC8
:1045C000706013E000EB44131F60C4EBC41E0EEBDD
:1045D0004E0E01EB8E0EC3E901CEAC4204D203F1C4
:1045E000200EC3F80CE000E0D860641C9442E9D3CC
:1045F0008E49C8608E48B060F0BD8B4A5068036831
:104600001146002B896808DB0368DB0505D5486087
:104610008868401C8860012070470368002B0CDB11
:1046200003689B0509D50368DB0506D408600020F4
:1046300048600120886050680BE00368002B0ADBAB
:1046400003689B0507D40368DB0504D48B685B1CF7
:104650008B60C068506000207047F0B5724C00233A
:104660004FF48016551E206012E000BF00EB43148B
:104670002660C3EBC31707EB470701EB8707A7606B
:10468000AB4203D204F12007E76000E0E0605B1C6E
:104690009342EBD365490861F0BD024600201268E1
:1046A0000A4200D0012070470068C0F3C300704781
:1046B000016841F00041016070470029016802D0A3
:1046C00041F0804101E021F08041016070470268C3
:1046D0000A430260704702680A430260704700297B
:1046E000016802D021F0006101E041F00061016049
:1046F00070470029016802D041F4801101E021F4E3
:104700008011016070470029016802D021F08061AA
:1047100001E041F0806101607047436841EA024175
:104720000B43436070470246002012680A4200D0E3
:10473000012070470246002012690A4200D0012081
:104740007047016841F00041016070470068C0F3A4
:104750000D407047426811B122F0004101E042F083
:10476000004141607047406811B1C0F30C40704790
:10477000C0F30C00704702680021002A08DB0268C1
:10478000120405D40268D20502D50068C0F30D41B9
:104790000846704725490028086802D040F080008C
:1047A00001E020F08000086070472048016841F077
:1047B0000101016070471D4900200968C90700D048
:1047C00001207047194A0146002052690A4200D070
:1047D00001207047154948617047144A0029D16982
:1047E00001D0014300E08143D16170470F4A014687
:1047F000002052690A4200D0012070470B494861ED
:1048000070470A48406900F0010070470748406956
:1048100000F040007047054900208969C90200D5B1
:104820000120704700800240F80000200090024004
:10483000601300207D4A01460020126A0A42F0D02F
:104840000120EEE77948006AC0F34A40E9E777487B
:10485000006A80B2E5E77548806CE2E77348C06C97
:10486000DFE77248006DDCE77048406DD9E76F49BB
:1048700000204860D5E76D4900208860D1E76B498A
:104880004862CEE730B50C4605460021FFF7ECFB49
:1048900014B140F4804201E020F480420021284617
:1048A000FFF7BCFB002800D0012030BD6048C16A82
:1048B00041F00041C162B4E75D4A002150F8213067
:1048C0009362491C0829F9D3ABE759490028C86A03
:1048D00002D040F4007001E020F40070C862A0E74C
:1048E000534A01460020D26A0A429AD0012098E732
:1048F0004F490028C86A02D040F0040001E020F0CF
:104900000400C8628DE74A490028C86A02D040F016
:10491000020001E020F00200C86282E7444900285A
:10492000C86A02D040F0010001E020F00100C86236
:1049300077E73F48D0F8001141F03001C0F800118E
:104940006FE73B48D0F8001121F02001C0F80011BA
:10495000D0F8001141F01001C0F8001161E73449AE
:104960000028D1F8000102D040F0080001E020F05A
:104970000800C1F8000154E72D490028D1F80001D2
:1049800002D040F0040001E020F00400C1F8000172
:1049900047E727490028D1F8000102D020F00200A3
:1049A00001E040F00200C1F800013AE72048D0F8E9
:1049B000001141F00101C0F8001132E71C4AC300A8
:1049C0000BD50029D2F80C1120F0805001D0814382
:1049D00000E00143C2F80C1123E70029D2F81011BE
:1049E00001D0814300E00143C2F8101119E7002112
:1049F0000F4AC30002D5D2F8043101E0D2F80831E1
:104A0000034204D0D2F80C21024200D10121084611
:104A100007E70749405804E701B581B001980090C5
:104A2000002801D0401EFAE70CBD000000900240B3
:104A3000008002408100A1F1C04148B143F2D200A0
:104A4000C1F800006FF070404860C1F80401704781
:104A50004FF0204243F2DB001060F3E710B5D0E9DD
:104A600001121143D0E903231A4311434269114350
:104A700082691143C2691143026A1143426A1143B8
:104A8000826A1143C26A1143026B114302689200A9
:104A9000A2F1C04211608168082907D1016889002C
:104AA000A1F1C0410A6842F040020A60416BD1E9BD
:104AB000002342EA03128B688C891B0243EA0443F9
:104AC0001A430B8A42EA03520B7D896942EA036268
:104AD0000A4301688900A1F1C0414A60C16AB1F589
:104AE000804F08D000686FF070418000A0F1C04096
:104AF000C0F8041110BD816BD1E9002342EA031212
:104B00008B680C8A1B0243EA04531A430B7D8969A4
:104B100042EA036200680A438000A0F1C040C0F886
:104B2000042110BD10B500210222C0E900128160ED
:104B3000C160016141618161D202C161C0E90812B5
:104B40005200C0E90A210163436B0F221A60436BD4
:104B50005A60446BFF23A360446BE260446B2261A4
:104B6000446B6261446BA161846B2260846B626000
:104B7000846BA360836BDA60836B1A61836B5A6109
:104B8000806B816110BD8000A0F1C04000290168E8
:104B900002D041F0010101E0C44A114001607047B8
:104BA00010B5182440234FF020414FF0FC3210285C
:104BB00005D041F8804F4B608A60CA6010BD0C661A
:104BC0004B668A66CA6610BD30B5D0E90112114342
:104BD000D0E903231A431143426941EA4221826921
:104BE00041EA4231C26941F00804D2E9001341EAC6
:104BF00003211389127B1B0443EA0262036A1143F7
:104C0000D3E9002542EA05221D891B7B2D0445EAD4
:104C100003631A4303684FF02040102B04D040F880
:104C2000804F8160C26030BD04668166C26630BD5F
:104C300010210160002141608160C160016141611A
:104C40008161C269FC211160C2695160C2699160D1
:104C5000C269D160026A1160026A5160026A9160A1
:104C6000006AC16070474FF0204251B1102804D053
:104C700052F8800F40F004000AE0106E40F004008B
:104C80000AE08A49C91E102804D052F8800F084053
:104C900010607047106E0840106670474FF0204259
:104CA00051B1102804D052F8800F40F040000AE0C3
:104CB000106E40F040000AE07C493F39102804D0D3
:104CC00052F8800F084010607047106E0840106660
:104CD00070474FF02041102802D0D1F8940070475F
:104CE000486F70474FF02040182140F8A01F002166
:104CF00041604FF0FC318160C1600161704710B5C7
:104D0000D0E9001241EA42228168102343EA41318E
:104D10000A434FF0204141F8A02FC268D2E9003485
:104D200043EA04231489127B240444EA02621343F5
:104D30008B600269D2E9003443EA04231489127BB0
:104D4000240444EA02621343CB604069D0E90023A3
:104D500042EA03220389007B1B0443EA006002430A
:104D60000A6110BD0021016041608160C268FC21C0
:104D70001160C2685160C2689160C268D160026906
:104D8000116002695160026991600269D1604269F3
:104D9000116042695160426991604069C160704729
:104DA0004FF02041002851F8A00F02D040F004003D
:104DB00002E03E4AD21E10400860704710B54FF422
:104DC00080744FF0204372B1102804D0A04205D166
:104DD00053F8840F04E0586E08430DE053F8A40F15
:104DE0000843186010BD102804D0A04206D153F823
:104DF000840F05E0586E8843586610BD53F8A40F21
:104E00008843EEE7034600204FF02042102B08D0E5
:104E1000B3F5807F07D0D2F8A4200A4200D0012049
:104E20007047526EF9E7D2F88420F6E74FF020423F
:104E3000102807D0B0F5807F08D052F8A40F88431F
:104E400010607047506E88435066704752F8840F68
:104E5000F5E7034600204FF02042102B0CD0B3F5AD
:104E6000807F0BD0D2F8A4200A4202EAD10102D0FE
:104E7000002900D001207047526EF5E7D2F8842057
:104E8000F2E74FF02042102808D0B0F5807F0AD01A
:104E900052F8A40F20EAD10010607047506E20EA4B
:104EA000D1005066704752F8840FF3E7FEFF0F0001
:104EB000BF4910B5884202D10121841424E0BD49C4
:104EC000884202D10121041404E0BB4988420AD17E
:104ED0000121C4132046FEF780F82046BDE81040AB
:104EE0000021FEF77AB8B549884202D10121441465
:104EF0000AE0B349884202D101210C0504E0B1491E
:104F000088420AD101214C052046FEF770F8204660
:104F1000BDE810400021FEF76AB810BD30B5028828
:104F20004C8802F441530A88CD8822438C882C4354
:104F300022430C8922434C8922438C892243CC8909
:104F400022431A430280828B22F400628283098A00
:104F5000018230BDF0B502220023858B01244FF27F
:104F60004006354085830284858B8E68022E3ED0B4
:104F70008A8802B10224944A13681B0203D513687D
:104F800023F400031360904A7C3213681268C3F361
:104F900088138D4EC2F30272361F36688B4F06F0AF
:104FA0003F06B7FBF6F65E43B6FBF2F2CB88B3F5ED
:104FB000007F2CD06301B2FBF3F200BF02EB820250
:104FC0008B685200B2FBF3F2521D92B20A23B2FB7D
:104FD000F3F202F00103D21A4FF6FF74C2F34F024C
:104FE00004EA0323941EFE2C01D302220023CC8862
:104FF0001A43144304840A884B881A438B8889898E
:105000000B431A432A4342F400618183F0BD120A24
:10501000D4E70021018041808180C18001814181EC
:105020008181C18107210182704700210180418077
:105030008180C180022282608181704700290188BD
:1050400002D041F0400101E021F0400101807047B1
:105050000029818B02D041F4806101E021F480615C
:1050600081837047028822F40062028002880A432A
:1050700002807047B1F5804F018803D021F4804150
:105080000180704741F48041FAE7A1F57E42018832
:10509000FF3A02D041F4807101E021F48071018077
:1050A00070470029818802D041F0040101E021F01D
:1050B0000401818070470029818802D041F01001ED
:1050C00001E021F010018180704730B5838B002210
:1050D0004FF240042340838302230384848B0B8894
:1050E0004FF48075B3F5007F00D003B92A464B8892
:1050F0008D8889892B4311430B43234343F400617B
:10510000818330BD80897047818170470029018883
:1051100002D041F4005101E021F4005101807047B8
:10512000018841F4805101807047012901D0008B32
:105130007047808A7047008A7047002A828801D0B1
:105140000A4300E08A4382807047090901238B40AB
:10515000002A828899B201D00A4300E08A43828003
:1051600070470246002012890A4200D00120704791
:10517000C9430181704710B501F00F0401220346B5
:1051800002FA04F4002009098A4091B29A88A4B274
:105190000A401989214202D0002A00D0012010BD06
:1051A00001F00F0201219140C943018170470000C5
:1051B0000030014000380040003C00400034014015
:1051C00000500140005401400838024000127A00AB
:1051D00010B504466FF00400FDF718FC2848E108FC
:1051E00001EB41020170C2EBC1114FF6FF7202EAFE
:1051F000C101418010BD2249097848434FF0E021A8
:10520000486100228A61086940F00100086108696C
:10521000C30701D0C003FAD5086920F00100086176
:105220008A6170471649498848434FF0E021486138
:1052300000228A61086940F0010008610869C3071B
:1052400001D0C003FAD5086920F0010008618A6125
:1052500070470B49498848434FF0E02148610022DC
:105260008A61086940F0010008610869C30701D03C
:10527000C003FAD5086920F0010008618A6170470F
:1052800004010020F0B58DB004461E236A4602A931
:1052900000F0EEFD0190002872D19DF80000271863
:1052A00000263E4C8DF800609DF8000054F8201058
:1052B00002A800F067FD38B19DF80000401CC0B2A4
:1052C0008DF800000728EFD39DF800000425344C2A
:1052D000072855D2DFE800F00404395A605F5E0009
:1052E00030A008F091F830A008F08EF83EA008F049
:1052F0008BF84DA008F088F85BA008F085F86AA04C
:1053000008F082F878A008F07FF885A008F07CF813
:105310008AA008F079F88FA008F076F893A008F03A
:1053200073F898A008F070F89DA008F06DF8A3A09D
:1053300008F06AF8AFA008F067F8BCA008F064F8BD
:10534000C7A008F061F8D3A01BE016A008F05CF835
:10535000E0A008F059F88DF800600BE0216805EB3B
:10536000C0000958EBA008F04FF89DF80000401C61
:105370008DF80000217D9DF800008142EED84EE2BC
:105380004FE208F041F800200DB0F0BD05A008F094
:105390003BF8C3E124E204E2E3E10000080100205D
:1053A000540100200D0A00002D2D2D2D2D2D2D2D09
:1053B0002D2D2D2D2D2D2D2D2D2D2D2D2D2D2D2D1D
:1053C00055534D4152542056332E312D2D2D2D2D18
:1053D0002D2D2D2D2D2D2D2D2D2D2D2D2D2D2D2DFD
:1053E0002D2D2D200D0A00002020202055534D4149
:1053F0005254CAC7D3C9414C49454E54454BBFAA24
:10540000B7A2B5C4D2BBB8F6C1E9C7C9B5C4B4AE7A
:10541000BFDAB5F7CAD4BBA5BDBBD7E9BCFE2CCD5E
:10542000A8B9FD200D0A0000CBFC2CC4E3BFC9D2F3
:10543000D4CDA8B9FDB4AEBFDAD6FACAD6B5F7D383
:10544000C3B3CCD0F2C0EFC3E6B5C4C8CEBACEBAAF
:10545000AFCAFD2CB2A2D6B4D0D02ED2F2B4CB2C8F
:10546000C4E3BFC90D0A0000D2D4CBE6D2E2B8FC37
:10547000B8C4BAAFCAFDB5C4CAE4C8EBB2CECAFD5F
:1054800028D6A7B3D6CAFDD7D62831302F3136BD9E
:10549000F8D6C629A1A2D7D6B7FBB4AEA1A2BAAF9F
:1054A000CAFDC8EB0D0A0000BFDAB5D8D6B7B5C83B
:1054B000D7F7CEAAB2CECAFD292CB5A5B8F6BAAF99
:1054C000CAFDD7EEB6E0D6A7B3D63130B8F6CAE4F7
:1054D000C8EBB2CECAFD2CB2A2D6A7B3D6BAAFCA19
:1054E000FDB7B5200D0A0000BBD8D6B5CFD4CABED3
:1054F0002ED0C2D4F6B2CECAFDCFD4CABEBDF8D625
:10550000C6C9E8D6C3B9A6C4DC2CD0C2D4F6BDF84F
:10551000D6C6D7AABBBBB9A6C4DC2E0D0A000000B4
:10552000BCBCCAF5D6A7B3D63A7777772E6F70652D
:105530006E6564762E636F6D0D0A000055534D4104
:105540005254D3D037B8F6CFB5CDB3C3FCC1EE3A81
:105550000D0A00003F3A202020202020BBF1C8A1E6
:10556000B0EFD6FAD0C5CFA20D0A000068656C7006
:105570003A202020BBF1C8A1B0EFD6FAD0C5CFA207
:105580000D0A00006C6973743A202020BFC9D3C390
:10559000B5C4BAAFCAFDC1D0B1ED0D0A0A00000012
:1055A00069643A2020202020BFC9D3C3BAAFCAFD06
:1055B000B5C44944C1D0B1ED0D0A0A006865783A16
:1055C00020202020B2CECAFD3136BDF8D6C6CFD4B9
:1055D000CABE2CBAF3B8FABFD5B8F12BCAFDD7D6DC
:1055E000BCB4D6B4D0D0BDF8D6C6D7AABBBB0D0AC2
:1055F0000A0000006465633A20202020B2CECAFD74
:105600003130BDF8D6C6CFD4CABE2CBAF3B8FABF73
:10561000D5B8F12BCAFDD7D6BCB4D6B4D0D0BDF81E
:10562000D6C6D7AABBBB0D0A0A00000072756E74FD
:10563000696D653A312CBFAAC6F4BAAFCAFDD4CBA6
:10564000D0D0BCC6CAB13B302CB9D8B1D5BAAFCADC
:10565000FDD4CBD0D0BCC6CAB13B0D0A0A000000B5
:10566000C7EBB0B4D5D5B3CCD0F2B1E0D0B4B8F17B
:10567000CABDCAE4C8EBBAAFCAFDC3FBBCB0B2CE68
:10568000CAFDB2A2D2D4BBD8B3B5BCFCBDE1CAF846
:105690002E0D0A002D2D2D2D2D2D2D2D2D2D2D2DA9
:1056A0002D2D2D2D2D2D2D2D2D2D2D2D2D2D414CF7
:1056B00049454E54454B2D2D2D2D2D2D2D2D2D2D68
:1056C0002D2D2D2D2D2D2D2D2D2D2D2D2D2D2D2017
:1056D0000D0A00002D2D2D2D2D2D2D2D2D2D2D2D97
:1056E0002D2D2D2D2D2D2D2D2D2D2D2D2DBAAFCA3E
:1056F000FDC7E5B5A52D2D2D2D2D2D2D2D2D2D2DB8
:105700002D2D2D2D2D2D2D2D2D2D2D2D2D2D2D2DC9
:10571000200D0A0025730D0A00000000F2A007F01A
:1057200073FE8DF8006016E0216805EBC0000BAB3E
:1057300008580AAA02A900F0BBFB9DF800102068D7
:1057400050F8312002A9F8A007F05EFE9DF8000095
:10575000401C8DF80000217D9DF800008142E3D8B7
:105760005DE0AFF2C03007F04FFE6A4602A938464E
:1057700000F051FC9DF80000002843D101A902A8C7
:1057800000F026FB8DF8000010B104283AD102E0A9
:10579000EAA001991CE0ECA007F036FE0120E075BC
:1057A0003DE0E8A007F030FE6A4602A9384600F066
:1057B00032FC9DF8000028BB01A902A800F008FBFC
:1057C0008DF8000010B104281CD104E0E3A0019979
:1057D00007F01AFE23E0E4A007F016FEE6751EE0CF
:1057E000D8A007F011FE6A4602A9384600F013FC63
:1057F0009DF8000030B901A902A800F0E9FA8DF87F
:10580000000008B10220BFE5019810F0FF0084F805
:10581000EC0001D0D9A000E0DFA007F0F5FDC9A0A1
:10582000AFE50120B0E5E348018821F001010180E6
:10583000E0494FF6FF701C310860DE49002014314A
:105840000860DD49C1F8F0007047DA480088DA499D
:10585000C007D1F8F00004D04FF6FF721044C1F831
:10586000F000D44A143212681044C1F8F0007047B6
:1058700010B5D04C2088C0070BD0CF4800698047B6
:10588000CC49002014310860CA494FF47A701C31A9
:105890000860208820F00100208010BDC74A08B5AC
:1058A000136843F004031360C24A1C321060101FD7
:1058B0000180C048001F018841F001010180BD48FE
:1058C0001038018841F0010101801E208DF8000090
:1058D00003208DF801008DF8020001208DF80300EF
:1058E0006846FDF752F808BD00EBC00101EB00105F
:1058F0004FF0FF3101EB800010B581B24FF47A70A8
:10590000FFF7CCFFAC490120C87510BD70B596B04B
:10591000054614AB01AA03A900F0CAFA002824D155
:105920008DF84C00A44C042615E000BF216806EB5E
:10593000C00014AB08586A460BA900F0B9FA002859
:1059400013D103A90BA800F01DFA80B19DF84C00FB
:10595000401C8DF84C00217DC0B28142E6D8207DEC
:105960009DF84C1088420ED1042016B070BD9DF8F1
:1059700000009DF80410884201D90220F5E79DF847
:105980004C00A075EBE713A9284600F0A2FB002805
:10599000EBD19DF84C0060750020E6E72DE9F04161
:1059A000854C9AB0A57D207DA8427DD90421206830
:1059B00001EBC50119AB405810AA11A900F078FA03
:1059C00011A97FA007F020FD00270DF1180833E092
:1059D000208B0121B940084217D022217AA007F07C
:1059E00013FD384600F066FB011978A0243107F05A
:1059F0000BFD222174A007F007FD384600F05AFB8A
:105A00002044243048F827000CE0384600F052FBD0
:105A10002044416A48F82710E07D08B36CA000BF1D
:105A200007F0F2FC9DF84000401E874202D06AA0B9
:105A300007F0EAFC7F1CFFB29DF840008742C7D305
:105A400066A007F0E1FCFFF7EEFE607D0B2814D2A4
:105A5000DFE800F0080D313840DAE4F3F1F04900F6
:105A60005FA0DDE7206850F83500804704E020683B
:105A700050F83510069888470646FFF7E6FE9DF871
:105A8000640001282ED057A007F0BEFC94F8EC006B
:105A900000280DD0D4F8F0100A20B1FBF0F200FB82
:105AA0001212B1FBF0F100E002E04FA007F0ACFCF5
:105AB0001AB0BDE8F081206850F83520DDE9060114
:105AC0009047D9E7206806AE50F8353096E80700D1
:105AD0009847D1E7206806AE50F8355096E80F0099
