:020000040800F2
:10000000A8D30120F1160008E1020008E30200086D
:10001000E5020008E7020008E9020008000000000D
:10002000000000000000000000000000EB020008DB
:10003000ED02000800000000EF020008F1020008D5
:100040000B1700080B1700080B1700080B17000808
:100050000B1700080B1700080B1700080B170008F8
:100060000B1700080B1700080B1700080B170008E8
:100070000B1700080B1700080B1700080B170008D8
:100080000B1700080B1700080B1700080B170008C8
:100090000B1700080B1700080B1700080B170008B8
:1000A0000B1700080B1700080B1700080B170008A8
:1000B0000B170008A90900080B1700080B17000808
:1000C0000B1700080B1700080B1700080B17000888
:1000D0000B170008E51000080B1700080B170008A5
:1000E0000B1700080B1700080B1700080B17000868
:1000F0000B1700080B1700080B1700080B17000858
:10010000F70F00080B170008CD0900080B170008AF
:100110000B1700080B1700080B170008FB09000855
:100120000B1700080B1700080B1700080B17000827
:100130000B170008C30B00080B1700080B1700086B
:100140000B1700080B1700080B1700080B17000807
:100150000B1700080B1700080B1700080B170008F7
:100160000B1700080B1700080B1700080B170008E7
:100170000B1700080B1700080B1700080B170008D7
:100180000B1700080B170008DFF80CD00AF0FEFD73
:10019000004800479D010008A8D30120A82003F0D3
:1001A000D3FC4FF4A06001F0B5FA00F033FB01F08E
:1001B00093F800F0B1FD00F0C9FF4FF4966402E03F
:1001C000204603F002FD00F0A4F90028F8D140F227
:1001D000473140F2E73000F069FB01F015F800F01C
:1001E000A9FA394C394E0720A061306800F0C9FAED
:1001F000DFF8DCA0012740F291158AF8007002E0D8
:100200000A2003F0E2FC6068A842F9D1306800F0EF
:10021000B8FADFF8C09099F80010491C89F800106E
:100220008AF8007002E00A2003F0CFFCA068A84220
:10023000F9D1B046306800F0A4FA99F800004E46B3
:10024000401C89F800008AF8007002E00A2003F0E0
:10025000BCFCE068A842F9D1D8F8000000F091FA9F
:100260003078401C30708AF8007002E00A2003F0F9
:10027000ACFC2069A842F9D15321C72000F042FB11
:100280000121154801F032FF144E4FF47A754FF0FA
:10029000000800BF00F0E9FF608008B900F0B4FF7B
:1002A0006069401C6061A84206D184F80080C4F8EF
:1002B0001480C6F8A87204E0207810B1C6F8A482B1
:1002C000E8E7C6F8A472E5E7080000205C0000201B
:1002D0007D0000207C000020000C00400080424295
:1002E0007047FEE7FEE7FEE7FEE77047704770479E
:1002F00002480168491C016070470000340000207A
:100300000CB500205449019000900A6842F48032F4
:100310000A604FF4A0430A6802F400320092019A86
:10032000521C0192009A12B9019A9A42F3D10A68BA
:10033000920334D50120009047484030026842F0D3
:10034000805202604548026842F4404202604248DE
:10035000083002680260026842F4004202600268EB
:1003600042F4A0520260031F3D4A1A600A6842F03C
:1003700080720A600A689201FCD53A4A40F205711F
:100380001160016821F003010160016841F0020180
:1003900001600168C1F381010229FAD10CBD00900E
:1003A0000CBD314810B5016841F4700101602A4864
:1003B000016841F001010160274A00210832116003
:1003C00002682A4B1A400260031D294A1A6002681B
:1003D00022F48022026020480C300160FFF790FF79
:1003E00021494FF000608039086010BD70B51A4C8B
:1003F000083420681F4A10F00C011F4804D0551023
:10040000042903D0082903D002601BE0056019E02D
:100410001149091D0B68C3F380560B6803F03F03B5
:1004200016B1B5FBF3F201E0B2FBF3F20B68096819
:10043000C3F388135A43C1F30141491C4900B2FB7D
:10044000F1F1016021680C4AC1F30311121D515CE6
:100450000268CA40026070BD00380240007000406F
:1004600008544007003C024088ED00E0FFFFF6FE24
:10047000103000240024F400380000204C4810B54F
:10048000016800200AF0FDFB4A480168BDE8104001
:1004900000200AF0F6BB10B505F0A4FB01460020D1
:1004A0000AF0F8FB424C43F69C61206000200AF001
:1004B000F1FB40490860216811B108B1002010BD6E
:1004C000FFF7DCFF012010BD70B53B490968C0246F
:1004D0008471A825C571012202726C234372022324
:1004E00003700023437083700E0CC6700E0A0671F1
:1004F00041718472C57202730A214173FF218173B5
:10050000C173017443748474C57402754275837534
:1005100070BD00B587B000F0C5FB10B9FFF7BBFF99
:1005200010B1012007B000BD00F0BEFA08B10220F2
:10053000F8E705F047FB2148FFF7C6FF1F4805AB6A
:10054000817A50F80B2F41EA02210391C178426869
:1005500041EA02210491C1798068194A41EA0020E8
:100560000590184900208DE80700144804AA03A943
:10057000183005F03DFC48B11048183005F067FC14
:100580000E48183005F0B2FC0020CBE70320C9E785
:100590000A48183004F0ACB80B4841F28833D0E96F
:1005A00000218A1A9A4202D3016003F04BBB7047C4
:1005B000F00000205C010020107AFF1F90B00020A6
:1005C0001B450008654700084C0000202DE9F05F3E
:1005D0007D4800251446C0F8A8527C487C4E4FF454
:1005E0002F5900784FF0010810F00301794806D028
:1005F000012926D0022946D003297DD165E017467E
:10060000DFF8D4B182460FE0DAF804307A897968ED
:100610000BEB03000AF06CFB7989DAF80400014463
:10062000CAF804103F685046002FEDD14168C16000
:10063000494578D169490A6802F5C8720A60684973
:1006400066E01746DFF89CB182460FE0DAF8043026
:100650007A8979680BEB03000AF04AFB7989DAF8AA
:1006600004000144CAF804103F685046002FEDD141
:100670004168C160494556D15B490A6802F5C872B4
:100680000A605A4944E01746DFF864B182460FE039
:10069000DAF804307A8979680BEB03000AF028FB5A
:1006A0007989DAF804000144CAF804103F6850461A
:1006B000002FEDD14168C160494534D14D490A68E8
:1006C00002F5C8720A604C4922E01746DFF82CB1E7
:1006D00082460FE0DAF804307A8979680BEB030080
:1006E0000AF006FB7989DAF804000144CAF804101C
:1006F0003F685046002F00E017E0EBD14168C16031
:10070000494510D13E490A6802F5C8720A603D4960
:100710000A6802F5C8720A6045603570C5608AF8DB
:10072000015002E0FFE78AF801802046BDE8F05F53
:1007300005F040BC38B509F0EAFE264C0028A06060
:100740001ED031498A79D1F8071042EA012100917F
:100750006288694609F099FE002811D14FF496622B
:100760002A49A06809F0BAFD002809D10022AFF299
:10077000A311A06809F0B4FE207840F0200020709A
:1007800038BD70B5054603220121002005F067FC45
:1007900004000AD01E4860602146284609F072FE17
:1007A0002046BDE8704005F005BC70BD10B504469C
:1007B00009F08EFE204609F096FE0648017821F0E9
:1007C0002001017010BD0000008042427C0000202A
:1007D0007D00002054000020900100200400002033
:1007E0000C000020502D00202400002010000020CC
:1007F000105900202800002014000020D084002080
:100800002C0000201800002090B000200CB0000840
:10081000000000202DE9FC470121312001F057FAAA
:1008200001248DF8044000258DF80650DFF8709003
:1008300040F202678DF80750032600978DF8056097
:100840006946484601F02AF88DF8044010208DF8DA
:100850000560DFF8508000908DF806508DF8074055
:100860006946404601F01AF81021404601F090F820
:100870008DF8044000948DF806500B4C8DF807500D
:100880008DF805606946204601F008F801212046F0
:1008900001F080F83946484601F07AF8BDE8FC8757
:1008A0000014024000000240001002407FB50D46D7
:1008B00004460121022001F028FA00200194ADF83D
:1008C0000050544CADF80200ADF8080069462046CF
:1008D00001F094FB01221146204601F018FF01218E
:1008E000204601F003FC1D208DF80C0002208DF83D
:1008F0000D008DF80E0001208DF80F0003A800F008
:100900000EFF7FBD7FB50C4605460121082001F092
:10091000FCF9ADF80040019500243F4DADF80240D0
:10092000ADF808406946284601F068FB01221146EF
:10093000284601F0ECFE32208DF80C008DF80D40B9
:100940008DF80E4001208DF80F0003A800F0E7FE9F
:100950007FBD7FB50C4605460121202001F0D5F969
:10096000ADF80040019500242C4DADF80240ADF8E3
:1009700008406946284601F041FB012211462846FD
:1009800001F0C5FE0121284601F0B0FB37208DF8AB
:100990000C008DF80D4001208DF80E008DF80F0031
:1009A00003A800F0BCFE7FBD10B51A4C0121204603
:1009B00001F0C1FE012803D1194908680A30086016
:1009C0002046BDE81040012101F0C1BE70B5124DB6
:1009D0000121284601F0AFFE012808D1114CC4F8CE
:1009E000800204F5207400F08AFC00202060284674
:1009F000BDE87040012101F0AABE10B5074C0121ED
:100A0000204601F098FE2046BDE81040012101F08B
:100A10009EBE000000040040000C00400014004096
:100A2000500000200000424210B5B0B001214FF04C
:100A3000606001F04CF902F0EDF802F002FD00BF39
:100A400002F005FD0128FBD0684602F0EFF8012016
:100A5000009000204FF40071CDE90A1009040790BE
:100A60001190CDE920010E90149013900A11159069
:100A70002590269023920420CDE9280180032A9016
:100A800080012B9040122C9040002E90002168464F
:100A900002F05EF9C4B2012C03D10121944802F0A6
:100AA000E8FC30B0204610BDFEB501214D2001F01C
:100AB0000EF90121880301F032F9012001F0F9F962
:100AC0008620032500908DF8055002208DF8040043
:100AD0000024884E8DF806408DF807406946304660
:100AE00000F0DCFE0B220121304600F060FF0B22FB
:100AF0000221304600F05BFF0B220721304600F058
:100B000056FF32207C4E00906946304600F0C6FE0B
:100B10000B220121304600F04AFF0B22042130460F
:100B200000F045FF0B220521304600F040FF4FF456
:100B3000D040724E00906946304600F0AFFE0B2266
:100B40001146304600F033FF0B220D21304600F0F5
:100B50002EFF0B220E21304600F029FF8DF80550A4
:100B6000012508208DF8045000908DF806408DF87E
:100B700007406946624800F091FE624EC6F88C421A
:100B8000322006F5237603F020F835603D208DF8FD
:100B900008008DF809508DF80A508DF80B5002A806
:100BA00000F0BDFDFFF740FF08B10020FEBD0120B1
:100BB000FEBD10B51F21002002F0A2F8C0F3820094
:100BC00010BD10B5504C01E0FFF7E2FC206802F0C8
:100BD0001EFC0028F8D1402002F05CFCBDE810406B
:100BE0004FF4803002F056BC30B5474C00231A4613
:100BF00021680D68002D0BDA444913464C69240620
:100C000002D580244C618B6002604260826030BDFE
:100C10000D682D040AD40D68ED0507D50D68AD05E6
:100C200004D50A68C2F30D438A681B1FCD6825608E
:100C30000360C0E9012130BD354A11680B68002B03
:100C400001DA00207047C0F30C004860086840F0EB
:100C500040500860086840F0004008602B48436935
:100C60005B0703D50423436100234360C868106019
:100C700001207047264800688068704710B5254CF1
:100C80000020216809F0FDFF0020616809F0F9FFEC
:100C90000020A16809F0F5FFE168BDE810400020E0
:100CA00009F0EFBF70B5A021002009F0F3FF194C47
:100CB000A0212060002009F0EDFF41F6C4556060DE
:100CC0002946002009F0E6FFA0602946002009F02F
:100CD000E1FFE060216831B1616821B1A16811B123
:100CE00008B1002070BDFFF7C9FF012070BD0000F2
:100CF00040000100000002400008024000180240CD
:100D0000000C024000804142C400002000900240DC
:100D1000C0000020640000202DE9F043A1B00121B3
:100D2000782000F0D4FF0121084600F0E4FF4FF0E6
:100D300030088DF87C8000248DF87D408DF87E4051
:100D400001258DF87F501FA800F0E9FC0122082141
:100D5000002002F07FFE02268DF8046003274CF28B
:100D600003708DF80570DFF8AC9200908DF80640A6
:100D70008DF807506946484600F090FD8DF80460F4
:100D80008DF806408DF805704FF68070A24F0090E8
:100D90008DF807506946384600F080FD8DF80460F4
:100DA00000958DF806509D4D6946284600F076FD69
:100DB0004FF23E0000908DF804608DF806406946C1
:100DC000284600F06BFDFF20954E009069463046A6
:100DD00000F064FD69464846CDF8008000F05EFDF5
:100DE000802000906946484600F058FD0C22002102
:100DF000484600F0DCFD0C220121484600F0D7FDFA
:100E00000C220421484600F0D2FD0C220521484660
:100E100000F0CDFD0C220721484600F0C8FD0C2251
:100E20000821484600F0C3FD0C220921484600F085
:100E3000BEFD0C220A21484600F0B9FD0C220B2110
:100E4000484600F0B4FD0C221146484600F0AFFDC4
:100E50000C220D21484600F0AAFD0C220E21484626
:100E600000F0A5FD0C220F21484600F0A0FD0C2249
:100E70000021384600F09BFD0C220121384600F08D
:100E800096FD0C220721384600F091FD0C22082126
:100E9000384600F08CFD0C220921384600F087FD11
:100EA0000C220A21384600F082FD0C220B21384624
:100EB00000F07DFD0C221146384600F078FD0C2232
:100EC0000D21384600F073FD0C220E21384600F04B
:100ED0006EFD0C220F21384600F069FD0C22002126
:100EE000284600F064FD0C220121284600F05FFD39
:100EF0000C220221284600F05AFD0C22032128462C
:100F000000F055FD0C220421284600F050FD0C2273
:100F10000521284600F04BFD0C221146284600F022
:100F200046FD0C220D21284600F041FD0C220E2129
:100F3000284600F03CFD0C220F21284600F037FD2A
:100F40000C220021304600F032FD0C2201213046F7
:100F500000F02DFD0C220221304600F028FD0C226D
:100F60000321304600F023FD0C220421304600F01E
:100F70001EFD0C220521304600F019FD0C22062131
:100F8000304600F014FD0C220721304600F00FFD22
:100F90000C220A21304600F00AFD0F20CDE9110491
:100FA0000820CDE9130415941694CDE91740CDE936
:100FB00019401D941E941020CDE9044006940002AF
:100FC000CDE90A401B941C9402940394079408945E
:100FD0008000CDE90C40099411A8CDE90E4018A875
:100FE000109002A802F086FB0121002002F017FCFD
:100FF00021B0BDE8F08310B50821002002F075FD96
:10100000012806D10821002002F087FD05490120B2
:10101000087010BD000C0240001002400014024095
:101020000018024074000020704744490A885206A4
:10103000FCD5C2B28A807047F0B50646012187B060
:10104000084600F044FE0121102000F068FE3C4FED
:1010500007220921384600F0AAFC07220A21384657
:1010600000F0A5FC4FF4C060049002208DF814003D
:101070008DF8150000248DF8164001258DF81750C5
:1010800004A9384600F00AFCADF80440ADF806406B
:10109000ADF80840ADF80C400C20284CADF80A0023
:1010A00000966946204601F04EFC0121204601F0E1
:1010B000BBFC4021204601F075FD012240F2255184
:1010C000204601F050FD25208DF8180003208DF8F2
:1010D00019008DF81A008DF81B5006A800F01FFBB0
:1010E00007B0F0BD70B5154C40F22551204601F017
:1010F0005CFD00280ED0204601F0C0FCC2B21148B1
:1011000001880B0406D44C044FF0000306D50A2ACC
:1011100001D0038070BD41F400410DE00D2A09D0DB
:10112000C1F30D04084D491C89B22A550180C72915
:10113000EFD870BD41F48041018070BD00100140C6
:101140000000024076000020D8B0002010B54FF01B
:10115000C04080210180642002F037FDF848F74A42
:101160004178037801EB03211180111DC27880784A
:1011700002EB00200880F248F049001F103142784D
:10118000037802EB03220A80C2788078091D02EB03
:1011900000200880EA48E949001D083142780378B8
:1011A00002EB03220A80C2788078091D02EB00203E
:1011B0000880E348E149163010394278037802EBA1
:1011C00003220A80C2788378091D02EB03220A8079
:1011D00042790079091D02EB00200880D74848F2C7
:1011E00001011838018010BDD4491C3908880880D5
:1011F000C00708D0D34908880880C00603D5D04965
:1012000001200E39C861704770B5CE4841F694711F
:101210000830CB4D0180CB484CF2A8011C300E3D6C
:101220000180001D40F2FF110180C6484AF6CD3111
:10123000183001260180C348A98824300180C148A4
:1012400002210C38041D01802680642002F0BDFCC0
:10125000BC48001D0078222803D0102020800020E8
:1012600070BD4FF0FF30EE6170BDB648001D0078D4
:10127000704770B5B348B24948300E390088C8800D
:10128000002828D0083880B2C880C20700D0401C8F
:10129000AC4A4308AA4C543200201C34158824F868
:1012A0001050401C0428F9DB0020A74D04E01688EC
:1012B00025F81060401C80B29842F8D3A14AE0881B
:1012C000083A0881402313800A6A521C0A620A2ADB
:1012D00001DB00220A6270BD10B59C4C1021204633
:1012E00000F058FB0A2002F070FC1021204600F0AC
:1012F0004FFBBDE810404FF47A7002F066BC2DE958
:10130000F05F8F4C0E3C0021A07850B18D480E222A
:1013100034300180001D02808A4808382022028073
:10132000E1618B48A170DFF830B20368DFF82CE28E
:10133000DD1703EB5575834A25F007055B1B50321B
:10134000DFF810C2864E0125DEF800A0DBF8009021
:101350004FF4C877082B7DD2DFE803F0042D5A83C1
:10136000B8E0EEEDD846B9F1010F74DDA5700023A9
:10137000DFF8F0A1B14614E0D8F800604FEA430C62
:10138000A6EBC6060CEB460C0CEB0A0606F58056DF
:101390005B1C96F8EFC596F8EE659BB20CEB062643
:1013A0001680D9F80060B342E6DBD8F80020521E60
:1013B000CBF8002082E1DFF8B081D8F80030012BB3
:1013C000D3DDA5700023DFF8A4A1B14615E000BF6E
:1013D000D8F800604FEA430CA6EBC6060CEB460CAF
:1013E0000CEB0A0606F580565B1C96F8EFC596F8DE
:1013F000EE659BB20CEB06261680D9F80060B3426E
:10140000E6DB00BFD8F80020521EC8F8002055E1E6
:10141000DFF85C81D8F80030012B1CDDA5700023BB
:10142000DFF850A1B14614E0D8F800604FEA430C51
:10143000A6EBC6060CEB460C0CEB0A0606F580562E
:101440005B1C96F8EFC596F8EE659BB20CEB062692
:10145000168001E0EFE070E0D9F80060B342E3DB12
:10146000D0E7AAF58078B8F1910866D1424BD3F85D
:101470000080B8F1010F60DDA5704FF0000CDFF8BF
:10148000FCA09846B14616E0D8F800304FEA4C066A
:10149000A3EBC30306EB430606EB0A0303F58053F5
:1014A0000CF1010C93F8EF6593F8EE351FFA8CFC04
:1014B00006EB03231380D9F800309C45E4DB00BF22
:1014C000D8F800305B1EC8F80030F7E0BAF1010F21
:1014D00033DDA5704FF0000CF046DFF8A4A0B14654
:1014E00017E000BFD8F800304FEA4C06A3EBC30367
:1014F00006EB430606EB0A0303F580530CF1010CDF
:1015000093F8EF6593F8EE351FFA8CFC06EB032396
:101510001380D9F800309C45E4DBD1E7194BD3F8B0
:101520000080B8F1010F08DDA5704FF0000CDFF866
:1015300058A0B14640E071E046E07AE0200000604B
:101540008A0000200C040060A0B1002000000240CE
:1015500030000020080000200400002028000020A7
:1015600020000020900100200C00002070170020B7
:1015700024000020502D00201000002030430020C7
:101580001059002014000020F06E00201E684FEA61
:101590004C08A6EBC60608EB460808EB0A0606F55B
:1015A00080560CF1010C96F8EF8596F8EE651FFA5F
:1015B0008CFC08EB06261680D9F80060B445E5DB04
:1015C0001A68521E1A6079E0414BD3F80080B8F1D6
:1015D000010F2EDDA5704FF0000C9846DFF8F4A047
:1015E000B14616E0D8F800304FEA4C06A3EBC3032F
:1015F00006EB430606EB0A0303F580530CF1010CDE
:1016000093F8EF6593F8EE351FFA8CFC06EB032395
:101610001380D9F800309C45E4DB51E7DFF8B8A02F
:10162000DAF80030012B04DDA9F58078B8F19108D3
:101630001ED08CF800502948006801280BD026489D
:101640000068012807D026480068012803D02548F3
:10165000006801280AD16078002807D12248006874
:10166000FFF78FF82078401C20706570BDE8F09F70
:10167000B146A5700023DFF874B0564616E000BFEF
:10168000D6F800C04FEA4308ACEBCC0C08EB4C0892
:1016900008EB0B0C0CF5805C5B1C9CF8EF859CF850
:1016A000EEC59BB208EB0C2CA2F800C0D9F800C024
:1016B0006345E5DB3268521ECAF80020A269521C5D
:1016C000A261BA42B7D1A1610168491C0160B2E7C9
:1016D0002C000020D08400201800002010000020E2
:1016E0000C000020140000205C000020B09A0020B4
:1016F0000648804706480047FEE7FEE7FEE7FEE7AC
:10170000FEE7FEE7FEE7FEE7FEE7FEE7A3030008CD
:10171000890100082849084328490860704730B506
:101720000F22C47801780123FCB1244C246801F114
:10173000E02104F4E064C4F5E064C4F30724C4F1D8
:101740000405E2404478AC408578154025432A01E1
:1017500081F80024007800F01F018B4040098000D0
:1017600000F1E020C0F8003130BD01F01F008340DF
:101770004809800000F1E020C0F8803130BD104AF7
:10178000114001430D48001F016070470B4A121DB4
:101790000029116801D0014300E0814311607047C6
:1017A0004FF0E0210428086903D020F0040008610C
:1017B000704740F00400FAE70000FA050CED00E085
:1017C00080FFFF1F824910B5884206D101210846DB
:1017D00000F0AFFA002101205BE07E49884206D18B
:1017E0000121022000F0A5FA0021022051E07A49EF
:1017F000884206D10121042000F09BFA0021042038
:1018000047E07649884206D10121082000F091FA8C
:10181000002108203DE07249884206D101211020B4
:1018200000F087FA0021102033E06E49884206D18B
:101830000121202000F07DFA0021202029E06A49C2
:10184000884206D10121402000F073FA0021402097
:101850001FE06649884206D10121802000F069FA24
:101860000021802015E06249884202D101218415BF
:101870000AE06049884202D10121441504E05E4932
:1018800088420AD101210415204600F052FA0021B5
:101890002046BDE8104000F04CBA10BDF0B5002362
:1018A000012403270D6804FA03F21540954242D142
:1018B000D0F800C05E0007FA06F52CEA050CC0F867
:1018C00000C091F804C0D0F800E00CFA06FC4CEA25
:1018D0000E0CC0F800C091F804C0BCF1010F02D09A
:1018E000BCF1020F1FD1D0F808C02CEA050CC0F8DB
:1018F00008C091F805C0D0F808E00CFA06FC4CEAE4
:101900000E0CC0F808C0D0F804C02CEA020CC0F8D5
:1019100004C0426891F806C00CFA03FC1FFA8CFC64
:1019200042EA0C024260C268AA43C260CA79C56832
:10193000B2402A43C2605B1C102BB3D3F0BD4FF6FC
:10194000FF7101600021017141718171C1717047A6
:1019500008B541F480320092C261C1610099C16151
:10196000C169C069009008BD0246002012690A42A0
:1019700000D001207047006980B270470246002005
:1019800052690A4200D001207047406980B2704716
:1019900001837047418370470AB1018370474183D7
:1019A00070474161704742694A40426170474B0746
:1019B000DB0E9A40C90810B500EB8100016A0F24C4
:1019C0009C40A1430162016A1143016210BD000005
:1019D000000002400004024000080240000C0240E7
:1019E000001002400014024000180240001C024097
:1019F000002002400024024000280240F84801680C
:101A000041F001010160F64A0021083211600268CC
:101A1000F44B1A400260031DF34A1A60F04BF34A7C
:101A200084331A60F04A103A1B1D1A60026822F4CF
:101A300080220260EA480C300160181D0160704786
:101A4000E7490022891C0A7008707047024600208E
:101A5000510901290CD002290CD0E14974310968DF
:101A600002F01F02012393400B4200D00120704777
:101A7000DB49F4E7DA497031F1E718B500204FF49B
:101A8000A04400903120FFF7E1FF0099491C00912C
:101A9000A14201D00028F5D03120FFF7D7FF002860
:101AA00000D0012018BDCE490A6822F0F80242EAAF
:101AB000C00008607047CE4908607047C8490022DE
:101AC00070310A700A70012802D0042801D1052063
:101AD00008707047C7490860704741EA82115A0888
:101AE00010B5C54B029C03EB02421143014341EA8E
:101AF0000460BB49091D086010BDBD4908667047F8
:101B0000800140EA0170B649843108607047B849E5
:101B100088667047800140EA0160B14940EA02707E
:101B2000883108607047B24908677047B049C86497
:101B30007047AB4A08321368084323F0EC6318433C
:101B400010607047A64A08321368084323F07843B0
:101B5000184310607047A24A0832116821F003014F
:101B60000143116070479E480830006800F00C0087
:101B700070479B4A0832116821F0F001014311605F
:101B80007047974A0832116821F4E051014311600F
:101B90007047934908310A6822F4604242EAC00063
:101BA0000860704770B58E4A08321168934C11F086
:101BB0000C0104D06610042903D0082903D0046066
:101BC0001BE0066019E08649091D0B68C3F38055C8
:101BD0000B6803F03F0315B1B6FBF3F301E0B4FB70
:101BE000F3F30C680968C4F388146343C1F301413B
:101BF000491C4900B3FBF1F1016011680F2303EAAE
:101C000011117F4B5C5C0168E1404160146807255D
:101C100005EA94241C5D21FA04F48460126805EA44
:101C200052329A5CD140C16070BDC0F301210329DA
:101C300008D16B4A0832116821F4F8137149014048
:101C400019431160664970310A68C0F30B00024302
:101C50000A607047674944390860704765494039F0
:101C6000086070476249C1F85C0170475C4A8C3279
:101C70001168401E21F01F0101431160704758494F
:101C80008C310A686FF0FF0322F4F85203EB002056
:101C9000104308607047524A8C32116821F4401199
:101CA0000143116070474E4A8C32116821F44001A3
:101CB0000143116070474A4A8C32116821F4403167
:101CC0000143116070475049C1F8E0017047444A30
:101CD00030320029116801D0014300E081431160D6
:101CE00070473F4A34320029116801D0014300E0B7
:101CF0008143116070473A4A38320029116801D097
:101D0000014300E0814311607047354A40320029A9
:101D1000116801D0014300E0814311607047304AEF
:101D200044320029116801D0014300E08143116071
:101D300070472B4A10320029116801D0014300E09E
:101D4000814311607047264A14320029116801D07E
:101D5000014300E0814311607047214A1832002995
:101D6000116801D0014300E08143116070471C4AB3
:101D700020320029116801D0014300E08143116045
:101D80007047174A24320029116801D0014300E04E
:101D9000814311607047124A50320029116801D006
:101DA000014300E08143116070470D4A543200291D
:101DB000116801D0014300E0814311607047084A77
:101DC00058320029116801D0014300E081431160BD
:101DD0007047034A60320029116817D0014316E0AA
:101DE00000380240FFFFF6EA1030002400300020E7
:101DF00000004742800E47420000FFFF0024F4002D
:101E0000AE000020FFFCFF0F00104742814311602D
:101E10007047134A0029116801D0014300E0814353
:101E2000116070470E4A573A0029117801D00143DA
:101E300000E081431170704709481030016841F09B
:101E40008071016070470146054A0020583A1268C7
:101E50000A4200D001207047014956390870704786
:101E60006438024010B501218C032046FFF789FF3A
:101E70002046BDE810400021FFF783BF14490860E9
:101E8000704714490862704710B58A0721F00304AF
:101E90001149130F21440F22D1F808489A40944366
:101EA000C1F80848D1F8082898400243C1F808282A
:101EB00010BD0849C1F8DC00704708490860704748
:101EC0000349002020310968C90500D50120704769
:101ED0000038014000002742003001400004274242
:101EE000FE4910B5884206D101210846FFF749FF97
:101EF000002101205BE0B0F1804F09D0F849884211
:101F00000DD101210220FFF732FF0021022070E0F5
:101F100001210846FFF72BFF0021012069E0F1496C
:101F2000884206D101210420FFF721FF002104206F
:101F30005FE0ED49884206D101210820FFF717FF35
:101F40000021082055E0E949884206D101211020EE
:101F5000FFF70DFF002110204BE0E549884206D134
:101F600001212020FFF703FF0021202041E0E1496B
:101F7000884206D101210220FFF703FF0021022041
:101F800015E0DD49884202D101210C040AE0DB4959
:101F9000884202D101214C0404E0D94988420AD187
:101FA00001218C042046FFF7ECFE00212046BDE80D
:101FB0001040FFF7E6BED349884206D101214020F8
:101FC000FFF7D5FE0021402013E0CF49884206D11B
:101FD00001218020FFF7CBFE0021802009E0CB49C2
:101FE00088420AD1841501212046FFF7C0FE002156
:101FF0002046BDE81040FFF7BABE10BD30B50288DC
:10200000B64BBC4C98420DD0A0420BD0B0F1804FE3
:1020100008D0B34DA84205D0B24DA84202D0B24D6F
:10202000A84203D122F070054A882A43AF4DA84246
:1020300006D0AF4DA84203D022F440750A892A4346
:1020400002804A68C2620A880285984201D0A04292
:1020500001D1897A01860121818230BD4FF0FF31A3
:1020600041600021018001814180817270470185BA
:1020700082827047028822F070020A430280704711
:1020800041627047C1627047406A7047008D704777
:102090000029018802D041F0020101E021F0020193
:1020A000018070470029018802D041F0040101E05D
:1020B00021F00401018070470029018802D041F01D
:1020C000800101E021F0800101807047028822F048
:1020D0000802028002880A4302807047028822F4C4
:1020E0004072028002880A430280704700290188FA
:1020F00002D041F0010101E021F0010101807047AF
:1021000030B5028C22F001020284028C8388048B99
:1021100022F0020224F073050C882C438D891543AC
:102120004A882A436D4DA84202D0724DA8420DD173
:1021300022F00805CA8923F440732A4322F00405DB
:102140008A882A430D8A1D434B8A2B43838004834C
:1021500089684163028430BD70B5028C22F01002A0
:102160000284028C8488038B0D8823F4E6464FF6A4
:10217000FF7303EA052535438E8922F0200203EA26
:10218000061616434A8803EA02123243534EB042FF
:1021900002D0584EB04215D122F08006CA8924F4EC
:1021A000406403EA0212324322F040068A8803EABE
:1021B000021232430E8A03EA860626434C8A03EA59
:1021C000840434438480058389688163028470BDFC
:1021D00070B5028C22F480720284028C8488838B16
:1021E0000D8823F073031D4322F400738E894FF68C
:1021F000FF7202EA06261E434B8802EA032333439A
:10220000364EB04202D03B4EB04215D123F40066A8
:10221000CB8924F4405402EA0323334323F4806639
:102220008B8802EA032333430E8A02EA061626430A
:102230004C8A02EA04143443848085838968C1632C
:10224000038470BD70B5028C22F480520284048C29
:102250008288838B0D8823F4E6464FF6FF7303EAEA
:102260000525354324F400568C8903EA04343443AD
:102270004E8803EA06362643184CA04202D01D4C75
:10228000A04205D122F480440A8A03EA8212224342
:102290008280858389680164068470BD0021018085
:1022A0004180818081608181C1810182418270474A
:1022B00030B50124058C00F118038C40A54305843A
:1022C00031B308292CD0091FC1F34E00184401680E
:1022D00048F6FF731940016001681AE000000140F0
:1022E0000004004000080040000C004000100040C6
:1022F000001400400004014000400140004401403F
:102300000048014000180040001C00400020004030
:1023100006E04FF6FF7303EA02221143016030BD6D
:1023200003EB510001684FF68F731940016001689B
:10233000F3E74163704781637047C163704701648D
:102340007047028B22F070020A4302837047028BAF
:102350004FF6FF7322F4E04203EA012111430183A7
:102360007047828B22F070020A4382837047828B0F
:102370004FF6FF7322F4E04203EA01211143818307
:102380007047028B22F008020A4302837047028BD7
:102390004FF6FF7322F4006203EA01211143018327
:1023A0007047828B22F008020A4382837047828B37
:1023B0004FF6FF7322F4006203EA01211143818387
:1023C0007047028B22F004020A4302837047028B9B
:1023D0004FF6FF7322F4806203EA01211143018367
:1023E0007047828B22F004020A4382837047828BFB
:1023F0004FF6FF7322F4806203EA012111438183C7
:102400007047028B22F080020A4302837047028BDE
:102410004FF6FF73C2F30E0203EA01211143018359
:102420007047828B22F080020A4382837047828B3E
:102430004FF6FF73C2F30E0203EA012111438183B9
:102440007047028C22F002020A4302847047028C19
:1024500022F008020A4302847047028C4FF6FF7391
:1024600022F0200203EA0111114301847047028C1B
:102470004FF6FF7322F0800203EA01111143018439
:102480007047028C4FF6FF7322F4007203EA0121B9
:10249000114301847047028C4FF6FF7322F40062EF
:1024A00003EA0121114301847047028C4FF6FF7348
:1024B00022F4005203EA013111430184704710B540
:1024C0000123048C8B409C430484038C8A40134377
:1024D000038410BD10B50423048C8B409C430484FA
:1024E000038C8A401343038410BD828B22F4406224
:1024F0008283828B4FF6FF7303EA01210A438283B2
:102500007047828B22F00C028283828B0A43828383
:102510007047028B22F440620283028B4FF6FF73F6
:1025200003EA01210A4302837047F0B5048C24F0CA
:1025300010040484078B068C4FF6FF7404EA01151F
:1025400027F4734704EA0331394304EA02220A43B9
:1025500026F0A001294341F0100102830184F0BD5F
:10256000028B22F00C020283028B0A430283704723
:102570002DE9F0410D460E884988AA882B8904462A
:102580000EB3042E26D0082E268C4FF6FF7028D0CE
:1025900026F480562684A78B268C00EA022200EAC5
:1025A000013127F473473A4300EA0330104326F41D
:1025B00020420A4342F48051A0832184E9882046C6
:1025C000BDE8F04191E700F062F9E9882046BDE8F6
:1025D000F041C5E7FFF7A9FFE9882046BDE8F041D3
:1025E00097E726F480762684A78B268C00EA0121C3
:1025F00000EA0310104327F0F307384326F4206263
:102600000A4342F48071A0832184E9882046BDE812
:10261000F04176E700210180418001228280C18063
:10262000018170472DE9F0410C4600264988074694
:10263000012501B90226A288012A00D1022520889D
:1026400023890028384610D0FFF76FFFE18838460D
:10265000FFF75FFF23892A463146384600F017F915
:10266000E1883846BDE8F0417AE700F010F9E188EA
:102670003846FFF775FF23892A4631463846FFF76B
:1026800054FFE1883846BDE8F04142E7406B7047AF
:10269000806B7047C06B7047006C704710B50A883C
:1026A0004B88CC881A438B8823431A430B891A43DF
:1026B0004B8989891A430A43A0F8442010BD0021A0
:1026C000018041808180C180018141818181704789
:1026D000002930F8441F02D041F4004101E0C1F369
:1026E0000E01018070470029818802D041F0040169
:1026F00001E021F00401818070470029818802D027
:1027000041F0010101E021F0010181807047002AC0
:10271000828901D00A4300E08A4382817047818226
:10272000704702460020128A0A4200D001207047FA
:10273000C9430182704702460020138A92890B42E6
:1027400002EA010202D0002A00D001207047C943EA
:10275000018270471143A0F848107047002A82890F
:1027600001D00A4300E08A438281704700298188B2
:1027700002D041F0080101E021F00801818070479A
:10278000018921F0070101817047028922F070025E
:102790000A430281704700B50346FFF7F6FF188928
:1027A00040F00700188100BD70B516460D4660293F
:1027B00004464FF0010231460AD000F068F829467D
:1027C0002046FFF7E2FF208940F00700208170BD1E
:1027D000FFF7ABFEF3E730B504894FF6FF7505EA66
:1027E00003231343E4B20B432343038130BD10B5ED
:1027F0000446FFF7F0FF208940F07700208110BDEC
:1028000010B50446FFF7E7FF208940F4804020819F
:1028100010BD828822F07002828082880A43828002
:102820007047028922F00702028102890A4302816D
:102830007047028922F08002028102890A430281E4
:10284000704770B50589048B068C25F007050D438C
:102850004FF6FC410C4040F201110C434FF6FF7162
:1028600001EA031126F02206114331430581048356
:10287000018470BD0029818802D041F0800101E00F
:1028800021F0800181807047A0F85010704770B52A
:10289000048C24F001040484058B048C4FF6FF762D
:1028A00006EA0313134325F0F3052B4324F00A0231
:1028B0000A4342F001010383018470BDCD4910B584
:1028C000884206D101211020FFF75BFA0021102079
:1028D00020E0C949884202D101214C0429E0C749BE
:1028E000884202D101218C0423E0C549884202D1EB
:1028F0000121CC041DE0C349884202D101210C050D
:1029000017E0C149884209D101212020FFF739FA97
:1029100000212020BDE81040FFF733BABB498842B0
:1029200002D101218C0704E0B94988420AD1012172
:1029300044052046FFF71BFA2046BDE81040002161
:10294000FFF715BA10BD7FB50446008A0D4620F486
:102950004051E88808432082A08941F20C618843F5
:10296000A9882A8911436A8902431143A181A08A57
:1029700020F44071A8890843A0826846FFF712F945
:102980009C48844202D0A048844201D1039800E0D0
:102990000298A189090400EBC00101EB001029682D
:1029A00001D5490000E08900B0FBF1F26420B2FBE0
:1029B000F0F109010B096FF018056B4302EB83027C
:1029C000A3891D044FF0320306D503EBC202B2FB0C
:1029D000F0F000F0070005E003EB0212B2FBF0F0AC
:1029E00000F00F00084320817FBD4FF416510160B5
:1029F00000218180C18001810C2242818181704748
:102A000010B5028A4C8822F470630A8822438C88AD
:102A1000C9880C4322431A43028210BD0021018061
:102A200041808180C18070470029818902D041F4B2
:102A3000005101E021F4005181817047028B02F4C2
:102A40007F420283028B0A430283704700298189F7
:102A500002D041F4004101E0C1F30E0181817047D1
:102A60000029818A02D041F4006101E021F4006173
:102A700081827047C1F30801818070478088C0F36C
:102A800008007047028A22F00F020282028A0A437B
:102A9000028270470029818902D041F0020101E0E1
:102AA00021F0020181817047828922F400628281D3
:102AB00082890A4382817047028A22F020020282C0
:102AC000028A0A43028270470029018A02D041F437
:102AD000804101E021F4804101827047818941F009
:102AE0000101818170470029818A02D041F00801EB
:102AF00001E021F0080181827047028BD2B202838B
:102B0000028B42EA0121018370470029818A02D0A9
:102B100041F0200101E021F020018182704700296D
:102B2000818A02D041F0100101E021F01001818280
:102B30007047828A22F004028282828A0A43828259
:102B400070470029818A02D041F0020101E021F0A2
:102B5000020181827047002A828A01D00A4300E084
:102B60008A438282704710B5C1F3421301F01F04FB
:102B70000121A140012B07D0022B07D01430002ADD
:102B8000026805D00A4304E00C30F8E71030F6E79D
:102B90008A43026010BD0246002012880A4200D01B
:102BA00001207047C9430180704730B501F01F0212
:102BB00001240025C1F3421304FA02F2012B0FD0C5
:102BC000022B0FD0838A4FEA11210088134204FAA6
:102BD00001F400EA040001D000B10125284630BD0F
:102BE0008389F0E7038AEEE70A0A01219140C9438D
:102BF0000180704700100140004400400048004040
:102C0000004C00400050004000140140007800409B
:102C1000007C004010B501214C062046FFF789F8E2
:102C20002046BDE810400021FFF783B80121016074
:102C30000021416081604FF48042C160C0E904120C
:102C4000D2108161C0E9071241628162C1620163F1
:102C5000416340228163C0E90F122022C0E91121A3
:102C6000C1640165416581658022C165C0E91812B2
:102C70008166C16601674167D2048167C0E91F129E
:102C80005210C0E921211311C0E92331C0F894107A
:102C9000C0F89810C0F89C10C0E928125212C0F871
:102CA000A8209201C0F8AC205212C0E92C21C0F833
:102CB000B810704738B500230093F84B1C694FF6E5
:102CC000FF7504F01C0405EAC02020434FF4F864AB
:102CD00004EA8111014341F003005A611861F04890
:102CE0000099491C00911969C90702D000998142D5
:102CF000F6D30099814201D1002038BD012038BDB2
:102D000018B500220092E54A13694FF6FF7403F0EC
:102D10001C0304EAC02018434FF4F86303EA81114E
:102D2000014321F0020040F001001061DC480099ED
:102D3000491C00911169C90702D000998142F6D35C
:102D40000099814201D1002018BD506980B218BDA0
:102D50002DE9F04188B00027D04E00970446059732
:102D60003069884620F01C0501A8FEF71BFFCD49FD
:102D70000298CD4A0144914202D245F0080516E07E
:102D8000CA49CB4A0144914202D245F00C050EE0FB
:102D9000C849C94A0144914209D3C8490844C849AD
:102DA000884202D245F0040501E045F01005356186
:102DB0004FF4004200214046FFF77CFF00282DD051
:102DC000C04800F075FC2068B0B3B54D05980121EE
:102DD000401C05904046FFF793FF400702D405983A
:102DE000A842F3D30598A84217D04FF4805200218F
:102DF00040460597FFF75EFF00280FD00598012198
:102E0000401C05904046FFF77BFF800602D40598E2
:102E1000A842F3D30598A84203D1002008B0BDE82A
:102E2000F0811F2140460597FFF76AFFC10604D5D0
:102E30004FF40061216201E008E02762400701D5FC
:102E4000676113E04FF4804060610FE0206A6169C0
:102E5000C00840EA510082B200214046FFF72AFF35
:102E60000028DBD06FF07F4000F022FC31689648EC
:102E70000140D4E901021043E26854F8103F1A43BC
:102E8000104362681043A2681043E268104322694D
:102E9000104362691043A2691043E2691043226A39
:102EA0001043626A104308433060F4E90A010843A2
:102EB000D4E90212114308432169084361690843B8
:102EC000A1690843E16908437060206AB060606AE4
:102ED000F060B1694FF641700140D4E90B02104334
:102EE000238D626B42EA03421043A26B1043E26BF4
:102EF00010430843B061D4E910010843F0617349FD
:102F00008A6973480240D4E912031843D4E914359E
:102F10002B431843A36D1843E36D1843236E1843E6
:102F2000636E1843A36E184310438861D4E91B02F3
:102F30001043626F54F8783F1A431043626840EAC6
:102F40008200A268104340F400000860086840F066
:102F500080000860012061E75C490028886902D090
:102F600040F0020001E020F00200886170475749FC
:102F70000028886902D040F4005001E020F400509D
:102F80008861704745490028086802D040F0040075
:102F900001E020F00400086070474C48816941F46A
:102FA0008011816170473D490028086802D040F0D7
:102FB000080001E020F008000860704700B501201B
:102FC000FFF7F1FFFFF7E9FF0120FFF7DBFF01202B
:102FD000FFF7CDFF01205DF804EBBDE72F4900208E
:102FE0008969C90700D0012070472C48816941F0E8
:102FF00001018161704729490028886902D040F0A9
:10300000010001E020F0010088617047234A014679
:103010000020926B0A4200D0012070471F4A0146EF
:103020000020926B0A4200D0012070471B4A002901
:10303000D16B01D0814300E00143D1637047174B4E
:103040008A88184402640A78D1F8011042EA012102
:1030500041647047114A0244106C030A4B710871B5
:10306000506C020ECA70020C8A70020A4A70087014
:1030700070470A4A00291044016C02D041F0004117
:1030800001E021F0004101647047044A082910441E
:10309000016C1FD041F080411EE000000080024022
:1030A000FFFF040000D3CEFEC0E1E40040F1E9FDE3
:1030B00040787D0100796CFC005A6202001F0AFA18
:1030C00080F0FA02FFFF0F000F8120FF0090024006
:1030D000233FDEF821F0804101647047F74A104435
:1030E000026C22F07C520264026C0A430264704754
:1030F00030B5F34B59680A689C68C2F30D42A56865
:10310000121F012D02D92468A46800E08C68CD68E4
:103110005D600260C0E9014130BD38B5E84A002475
:103120000094D2E9013117E06D1C00951D68AD05D2
:1031300007D51D68ED0504D40B6001238B6053682F
:1031400008E01D68ED0511D41D68AD050ED48D682D
:103150006D1C8D60DB6853601D68002D02DB009DD7
:10316000052DE1D304604460846038BD4B608C68F9
:10317000641C8C608C68012C00D10B6053681C6847
:103180008D68C4F30D44241F012D02D90968896894
:1031900000E09968DD6855600460C0E9011338BD3E
:1031A000F0B5C74D002429680A68002A01DA00201A
:1031B000F0BD40F2F453984215D9B0FBF3F6B0FBE2
:1031C000F3F203FB160606B1521C012A0BD0C2F122
:1031D0000107C7EBC71707EB470700EB8700561E31
:1031E000C0F30C0723E00A6842F040520A60C0F3C3
:1031F0000C004860086840F000400860C86828601B
:1032000018E034B92868D0F800C04CF0805CC0F8F1
:1032100000C04B60B44204D1086840F00050086020
:103220004F60086840F000400860C968641C944220
:10323000E7D32960A3484169490703D504214161C7
:10324000002141600120F0BDF0B59D4E00244FF0FB
:10325000004744F2F45C551E706013E000EB441329
:103260001F60C4EBC41E0EEB4E0E01EB8E0EC3E9C5
:1032700001CEAC4204D203F1200EC3F80CE000E012
:10328000D860641C9442E9D38E49C8608E48B0600F
:10329000F0BD8B4A506803681146002B896808DB33
:1032A0000368DB0505D548608868401C88600120FC
:1032B00070470368002B0CDB03689B0509D5036886
:1032C000DB0506D408600020486001208860506853
:1032D0000BE00368002B0ADB03689B0507D4036837
:1032E000DB0504D48B685B1C8B60C06850600020D9
:1032F0007047F0B5724C00234FF48016551E2060C5
:1033000012E000BF00EB43142660C3EBC31707EBCA
:10331000470701EB8707A760AB4203D204F1200700
:10332000E76000E0E0605B1C9342EBD36549086115
:10333000F0BD0246002012680A4200D0012070470A
:103340000068C0F3C3007047016841F000410160AC
:1033500070470029016802D041F0804101E021F06E
:1033600080410160704702680A430260704702684A
:103370000A43026070470029016802D021F0006111
:1033800001E041F00061016070470029016802D04E
:1033900041F4801101E021F480110160704700299F
:1033A000016802D021F0806101E041F0806101609C
:1033B0007047436841EA02410B434360704702464D
:1033C000002012680A4200D0012070470246002007
:1033D00012690A4200D001207047016841F00041A3
:1033E000016070470068C0F30D407047426811B13A
:1033F00022F0004101E042F0004141607047406826
:1034000011B1C0F30C407047C0F30C007047026864
:103410000021002A08DB0268120405D40268D205E4
:1034200002D50068C0F30D410846704725490028C1
:10343000086802D040F0800001E020F080000860C1
:1034400070472048016841F00101016070471D4943
:1034500000200968C90700D001207047194A0146B9
:10346000002052690A4200D0012070471549486186
:103470007047144A0029D16901D0014300E081431B
:10348000D16170470F4A0146002052690A4200D0BC
:10349000012070470B49486170470A48406900F0B5
:1034A000010070470748406900F040007047054937
:1034B00000208969C90200D50120704700800240C0
:1034C000C000002000900240C8B100207D4A0146A3
:1034D0000020126A0A42F0D00120EEE77948006A23
:1034E000C0F34A40E9E77748006A80B2E5E77548EB
:1034F000806CE2E77348C06CDFE77248006DDCE780
:103500007048406DD9E76F4900204860D5E76D49A4
:1035100000208860D1E76B494862CEE730B50C46A1
:1035200005460021FFF7ECFB14B140F4804201E0B6
:1035300020F4804200212846FFF7BCFB002800D081
:10354000012030BD6048C16A41F00041C162B4E76A
:103550005D4A002150F821309362491C0829F9D3B3
:10356000ABE759490028C86A02D040F4007001E076
:1035700020F40070C862A0E7534A01460020D26AD6
:103580000A429AD0012098E74F490028C86A02D021
:1035900040F0040001E020F00400C8628DE74A49D1
:1035A0000028C86A02D040F0020001E020F00200CA
:1035B000C86282E744490028C86A02D040F001008E
:1035C00001E020F00100C86277E73F48D0F8001121
:1035D00041F03001C0F800116FE73B48D0F800110E
:1035E00021F02001C0F80011D0F8001141F01001C5
:1035F000C0F8001161E734490028D1F8000102D079
:1036000040F0080001E020F00800C1F8000154E794
:103610002D490028D1F8000102D040F0040001E05B
:1036200020F00400C1F8000147E727490028D1F83D
:10363000000102D020F0020001E040F00200C1F8D9
:1036400000013AE72048D0F8001141F00101C0F82C
:10365000001132E71C4AC3000BD50029D2F80C1127
:1036600020F0805001D0814300E00143C2F80C11EA
:1036700023E70029D2F8101101D0814300E0014373
:10368000C2F8101119E700210F4AC30002D5D2F881
:10369000043101E0D2F80831034204D0D2F80C2101
:1036A000024200D10121084607E70749405804E7D4
:1036B00001B581B001980090002801D0401EFAE7C2
:1036C0000CBD000000900240008002408100A1F18A
:1036D000C04148B143F2D200C1F800006FF0704021
:1036E0004860C1F8040170474FF0204243F2DB000C
:1036F0001060F3E710B5D0E901121143D0E90323BC
:103700001A4311434269114382691143C26911434B
:10371000026A1143426A1143826A1143C26A114329
:10372000026B114302689200A2F1C04211608168ED
:10373000082907D101688900A1F1C0410A6842F057
:1037400040020A60416BD1E9002342EA03128B6810
:103750008C891B0243EA04431A430B8A42EA035250
:103760000B7D896942EA03620A4301688900A1F17D
:10377000C0414A60C16AB1F5804F08D000686FF05F
:1037800070418000A0F1C040C0F8041110BD816BF1
:10379000D1E9002342EA03128B680C8A1B0243EA38
:1037A00004531A430B7D896942EA036200680A43A5
:1037B0008000A0F1C040C0F8042110BD10B5002168
:1037C0000222C0E900128160C16001614161816132
:1037D000D202C161C0E908125200C0E90A210163A6
:1037E000436B0F221A60436B5A60446BFF23A36044
:1037F000446BE260446B2261446B6261446BA16183
:10380000846B2260846B6260846BA360836BDA607C
:10381000836B1A61836B5A61806B816110BD80007C
:10382000A0F1C0400029016802D041F0010101E08F
:10383000C44A11400160704710B5182440234FF06E
:1038400020414FF0FC32102805D041F8804F4B60EA
:103850008A60CA6010BD0C664B668A66CA6610BD77
:1038600030B5D0E901121143D0E903231A431143C3
:10387000426941EA4221826941EA4231C26941F02A
:103880000804D2E9001341EA03211389127B1B04C7
:1038900043EA0262036A1143D3E9002542EA0522A2
:1038A0001D891B7B2D0445EA03631A4303684FF00F
:1038B0002040102B04D040F8804F8160C26030BDA2
:1038C00004668166C26630BD10210160002141603E
:1038D0008160C160016141618161C269FC21116047
:1038E000C2695160C2699160C269D160026A1160A7
:1038F000026A5160026A9160006AC16070474FF0CD
:10390000204251B1102804D052F8800F40F004003A
:103910000AE0106E40F004000AE08A49C91E10282F
:1039200004D052F8800F084010607047106E0840B5
:10393000106670474FF0204251B1102804D052F861
:10394000800F40F040000AE0106E40F040000AE0B6
:103950007C493F39102804D052F8800F084010608D
:103960007047106E0840106670474FF020411028D5
:1039700002D0D1F894007047486F70474FF0204054
:10398000182140F8A01F002141604FF0FC318160F8
:10399000C1600161704710B5D0E9001241EA4222CE
:1039A0008168102343EA41310A434FF0204141F836
:1039B000A02FC268D2E9003443EA04231489127BA1
:1039C000240444EA026213438B600269D2E90034A2
:1039D00043EA04231489127B240444EA0262134359
:1039E000CB604069D0E9002342EA03220389007BCF
:1039F0001B0443EA006002430A6110BD002101601C
:103A000041608160C268FC211160C2685160C26877
:103A10009160C268D16002691160026951600269F7
:103A200091600269D16042691160426951604269E6
:103A300091604069C16070474FF02041002851F803
:103A4000A00F02D040F0040002E03E4AD21E104017
:103A50000860704710B54FF480744FF0204372B186
:103A6000102804D0A04205D153F8840F04E0586E0A
:103A700008430DE053F8A40F0843186010BD102848
:103A800004D0A04206D153F8840F05E0586E884355
:103A9000586610BD53F8A40F8843EEE70346002094
:103AA0004FF02042102B08D0B3F5807F07D0D2F81A
:103AB000A4200A4200D001207047526EF9E7D2F8E4
:103AC0008420F6E74FF02042102807D0B0F5807F21
:103AD00008D052F8A40F884310607047506E884396
:103AE0005066704752F8840FF5E7034600204FF008
:103AF0002042102B0CD0B3F5807F0BD0D2F8A4203D
:103B00000A4202EAD10102D0002900D00120704708
:103B1000526EF5E7D2F88420F2E74FF020421028E9
:103B200008D0B0F5807F0AD052F8A40F20EAD10067
:103B300010607047506E20EAD1005066704752F80E
:103B4000840FF3E7FEFF0F0010B504466FF004008A
:103B5000FDF726FE3248E10801EB41020170C2EB9D
:103B6000C1114FF6FF7202EAC101418010BD2C491C
:103B7000097848434FF0E021486100228A610869D2
:103B800040F0010008610869C30701D0C003FAD5FD
:103B9000086920F0010008618A617047204949885E
:103BA00048434FF0E021486100228A61086940F0F3
:103BB000010008610869C30701D0C003FAD508698C
:103BC00020F0010008618A6170471549498848431F
:103BD0004FF0E021486100228A61086940F001004D
:103BE00008610869C30701D0C003FAD5086920F04D
:103BF000010008618A6170474FF0E02015214161A2
:103C000000218161016941F00101016170474FF0BC
:103C1000E020016921F0010101610021816170470B
:103C2000CC00002070B5FB4C00EB8005002654F85A
:103C3000250018B102F0BEF944F8256004EB8500B8
:103C4000867470BD70B5F34D002400BF04EB840092
:103C500005EB8001887C90B1CA7C521CD2B2CA7438
:103C6000F02A06D2012802D0032806D007E0022A53
:103C700005D32046FFF7D6FF01E002208874641CBC
:103C8000E4B20A2CE2D370BD2DE9F34F85B04FF0BA
:103C90000A0B00240646DA465F460294D946019490
:103CA000CDF80040DB4904EB840001EB8008039071
:103CB00098F812500A2F16D0002D24D0012D08D0CC
:103CC000022D06D2D4A340F22B12DDA1ECA007F006
:103CD0009BF866B13168D8F80400814207D160B220
:103CE00007B0BDE8F08F002DE8D167B20BE0012DE1
:103CF00017D0022D07D398F813000199884202D3F8
:103D00004FFA84FA0190641CE4B20A2CCAD30698D4
:103D100081074FF0FF30E3D40A2F18D01ADAFCB233
:103D200042E0BC48039950F82100002898F813009D
:103D300006D000998842E6D34FFA84F90090E2E772
:103D400002998842DFD34FFA84FB0290DBE70699A1
:103D5000C907C5D0BAF10A0F0FDA0AF0FF04AD485F
:103D600004EB840150F8210090B1ABA340F2711232
:103D7000CEA1C3A007F048F80AE0BBF10A0F02DAAF
:103D80000BF0FF0404E0B9F10A0FA9DA09F0FF040F
:103D90000A2C06D3A0A340F28312CAA1B8A007F050
:103DA00033F82046FFF73EFF0A2C06D39AA340F2D1
:103DB0008712C4A1B2A007F027F8964804EB84014B
:103DC00000EB8105A87C30B193A34FF4C472C2A16B
:103DD000ABA007F019F80EB1306868600020E874F5
:103DE0007DE72DE9F041054690F822004C681E461B
:103DF00017468846062806D087A340F2A312C14979
:103E00009FA007F001F830682060B088A080386873
:103E1000C4F80600B88860810820A0814146284681
:103E2000AA69BDE8F04110472DE9F041044690F839
:103E300022001F4616460D46062806D076A340F2FD
:103E4000C312B1A18EA006F0DFFF85B3286870B35E
:103E5000214601F07FF950BB2878C0F303100E28EB
:103E600026D039462846FFF70FFF00281DDB00EB60
:103E700080016848022300EB8102937494603368E8
:103E8000D360B38813820023D37450F821505DB1FE
:103E900040F82130334604F1230229462046FFF73B
:103EA000A0FF284602F086F80020BDE8F081FFE779
:103EB0006FF00D00F9E770B5564D0646002400BFBF
:103EC00004EB840005EB8000817C29B18068B0425E
:103ED00002D12046FFF7A6FE641CE4B20A2CEFD301
:103EE00070BD70B51C4615000E4601D0002C06D1E1
:103EF00049A34FF418728EA161A006F085FF02213C
:103F00003046FFF7C1FE00280DDB424900EB80027E
:103F100001EB82018A7C022A05D301F10C02091D02
:103F20002A60216070BD4FF0FF3070BD2DE9F84F61
:103F300090468946050010D0B8F80A002A2864D3B4
:103F4000D8F804604FF4807A344634F80E0F5045A8
:103F50005BD12079062858D108E02FA340F2BB227C
:103F60007CA147A006F050FFBDE8F88F60790428D7
:103F70004BD16088082848D1D4F80E000090A16980
:103F8000281D06D0686820B1814202D101273B4636
:103F900001E00027022304F1080269462846FFF7E2
:103FA00043FFE088504530D1002F2ED0022001F091
:103FB00001FEE080D4F80E00A0616868C4F80E002D
:103FC00095F82200062806D013A340F211324D497D
:103FD0002BA006F019FFA068C4F81200A089E082A7
:103FE000A0683060A089B080D9F80010A160B9F84D
:103FF0000400A081D9F80010C6F80610B9F8040032
:104000007081AA69414628469047404601F0D2FF98
:10401000AAE70000D4B100202E2E5C4C5749505C1A
:104020006C7769702D312E342E315C7372635C6E47
:10403000657469665C6574686172702E6300000067
:104040007374617465203D3D204554484152505F72
:1040500053544154455F50454E44494E47207C7C63
:10406000207374617465203E3D2045544841525090
:104070005F53544154455F535441424C4500000046
:10408000417373657274696F6E20222573222066F6
:1040900061696C6564206174206C696E65202564BB
:1040A00020696E2025730D0A000000006172705FA8
:1040B0007461626C655B695D2E71203D3D204E55DB
:1040C0004C4C000069203C204152505F5441424C0E
:1040D000455F53495A4500006172705F7461626CBC
:1040E000655B695D2E7374617465203D3D204554A8
:1040F000484152505F53544154455F454D505459C7
:1041000000000000B0B000086E657469662D3E685E
:1041100077616464725F6C656E203D3D2045544854
:104120004152505F4857414444525F4C454E000055
:104130006574685F72657420213D204E554C4C209B
:1041400026262069705F72657420213D204E554CF3
:104150004C0000006E6574696620213D204E554C70
:104160004C0000002DE9F05F9846DDF82CB0914638
:104170008A46070009D1AFF2601340F2A542AFF2C0
:104180002C01AFF2041006F03FFE00222A2103208A
:1041900001F065FF060057D070892A2808D2AFF2D7
:1041A00088134FF49662F9A1AFF22C1006F02CFEA2
:1041B00075680D9805F10E0401F0FCFCE08097F89D
:1041C0002200062808D0AFF2B013FD494FF49762E1
:1041D000AFF2541006F018FED8F80010A160B8F83D
:1041E0000400A081DBF80010C4F81210BBF8040032
:1041F000E082D9F800102960B9F80400A880DAF844
:104200000010C5F80610BAF8040068810A98314613
:104210000068C4F80E000C980068A0614FF480702C
:1042200020800820608006202071042060714FF4F7
:10423000C160A881BA69384690470446304601F00B
:10424000B9FE2046BDE8F09F4FF0FF30FAE71FB5FA
:104250000123DC4C021DCDE90213CDE9002400F15D
:1042600023031946A21FFFF77DFF04B010BD70B5F0
:1042700005460E46D44802EB820100EB8104A07C87
:10428000022808D2AFF270234FF45372CFA1AFF2DD
:10429000102006F0B9FDA07C022809D1E07CE428BA
:1042A00006D3211D2846FFF7D2FF08B90320A074CA
:1042B00004F10C0305F1230231462846BDE87040A5
:1042C0008FE52DE9F74F82B0884602984FF0FF3B0B
:1042D00023300090086814465E46029900F03AFFC9
:1042E00000282BD1D8F80000C0F303110E2925D0E7
:1042F000B8F1000F22D0002820D001214046FFF75E
:10430000C3FC07001CD4DFF8C0A207EB87090AEB47
:104310008905A87C002815D0012815D002280BD2C9
:10432000AFF20C3340F21942B4A1AFF2AC2006F068
:104330006BFDA87C012807D034B10CE06FF00D00B4
:1043400005B0CEE40120A87441460298FFF77FFF34
:104350000646002CF4D0A87CD04602280AD3B148E7
:1043600005F10C0321460770009A0298FFF739FD0A
:10437000064636E0012834D1254640F23E4668899B
:104380002989884209D1286838B1AFF2743332469E
:10439000A5A1AFF2143006F037FD287B01280ED01E
:1043A00029890022032001F05AFE050018D0214679
:1043B00002F0DCF958B1284601F0FCFD10E02D6850
:1043C000002DDCD12546204602F059F945B158F8B8
:1043D000290008B101F0EEFD48F82950002600E060
:1043E0005E463046ACE72DE9FC4115460E4604001A
:1043F00009D1AFF2DC3340F27532AFF2A821AFF24F
:10440000803006F001FD46B9AFF2F43340F2763267
:104410008CA1AFF2943006F0F7FC45B9AFF2084337
:1044200040F277328AA1AFF2A83006F0EDFC0E21FF
:10443000304601F087FF18B16FF00100BDE8FC8144
:104440002146286800F086FE10B15E4B9B1F3CE0C1
:104450002868C0F303110E2922D0A168636800EA1E
:1044600001020B409A420BD080B2A0F57E41A939DF
:1044700006D014F10C0F2FD0E06868B304F10C05DE
:10448000684A5149137803EB830001EB8000877C75
:10449000022F24D32F684068874220D11A462DE08E
:1044A00001208DF8000000208DF801005E208DF8BD
:1044B000020068786B4600F07F008DF80300A87852
:1044C0008DF80400E8788DF8050004F123023146E8
:1044D0002046FFF786FCB1E76FF00300AEE700204F
:1044E00000EB800301EB83039F7C022F0BD32F682B
:1044F0005B689F4207D1C0B2107002463146204629
:10450000FFF7B5FE9AE7401C40B20A28E8DB3246C6
:1045100029462046FFF7D5FE90E770B5044640894E
:104520000D460E2830D9606801788689CA0715D0F3
:10453000012906D023490622891F06F004FC48B150
:104540000CE0417851B980785E2807D1607B40F05B
:10455000100002E0607B40F008006073082E03D07A
:10456000B6F5C16F10D186E095F8290080060BD50D
:104570006FF00D01204601F0E5FE20B1AFF2685367
:1045800040F24F526CE071E081E0000063686563C7
:104590006B20746861742066697273742070627530
:1045A000662063616E20686F6C642073747275633B
:1045B00074206574686172705F6864720000000046
:1045C000B0B0000806B00008D4B100206172705F7E
:1045D0007461626C655B6172705F6964785D2E7393
:1045E00074617465203E3D204554484152505F53EC
:1045F000544154455F535441424C45006172705FD1
:104600007461626C655B695D2E7374617465203DD5
:104610003D2050454E44494E47206F72205354412F
:10462000424C4500D00000206E6F207061636B65C6
:10463000742071756575657320616C6C6F77656446
:10464000210000007120213D204E554C4C000000FF
:1046500069706164647220213D204E554C4C00000D
:104660000DA1AFF2E45006F0CFFB10E02946204642
:1046700000F0EBFB09E095F82900800607D52246FB
:1046800005F123012846FFF751FC002070BD2046AC
:1046900001F090FCF9E7000043616E2774206D6F14
:1046A0007665206F76657220686561646572206941
:1046B0006E207061636B65740000000070B50C467D
:1046C0000025FCF7D7FA064607E062897019616891
:1046D00006F00EFB608924680544002CF5D1A8B2D1
:1046E000FCF7AAFA08B1002070BD4FF0FF3070BD92
:1046F0002DE9FE43814600266846FCF775FADDE9A0
:1047000001710098884681B20322104601F0A7FC8F
:1047100005000AD00446B9196289606806F0E8FA13
:10472000608924680644002CF5D14FF00041C8F898
:10473000001038484169090603D5802141610021F4
:10474000816065B1D9F81020494628469047040099
:1047500002D0284601F02EFC2046BDE8FE834FF033
:10476000FF30FAE710B5040005D12BA3742235A160
:1047700037A006F049FB652084F82A006E2084F8F3
:104780002B003E4860613E48A061204600F002F8E0
:10479000002010BD70B5062180F8221039490A7832
:1047A00080F823204A7880F824208A7880F8252011
:1047B000CA7880F826200A7980F82720497980F87D
:1047C000281040F2DC510184322180F8291000F1D8
:1047D00023010020FEF733FC2B482C4D05220168F5
:1047E0002868FEF786FD2A480522016829480068E6
:1047F000FEF72AFD00244FF440062868314600EBFE
:104800004410FEF7B4FD641C052CF6DBFEF7D6FB66
:10481000002070BD009002402E2E5C4C5749505C29
:104820006C7769702D312E342E315C7372635C6E3F
:10483000657469665C65746865726E657469662E18
:10484000630000006E65746966213D4E554C4C0056
:10485000417373657274696F6E202225732220661E
:1048600061696C6564206174206C696E65202564E3
:1048700020696E2025730D0A00000000E743000840
:10488000BD46000890B000207000002068000020A5
:104890006C000020640000202DE9FE4F45680446AE
:1048A0008A4628780007870E79428846204601F01C
:1048B00049FD00287AD12089042877D360680078E0
:1048C00000287FD008287DD1624901260868C0F3FE
:1048D00003120E2A00D100268946514600F03AFC08
:1048E00000286FD1002E6DD0208908286AD3204679
:1048F00000F038FA002865D12221204601F022FD7F
:10490000002831D03946204601F01CFD18B152A3D1
:1049100098225BA147E021890022022001F09FFB41
:1049200006004FD0718907F10800814205D24AA3E1
:10493000A12260A16DA006F067FA2146304601F081
:1049400015FF18B144A3A52273A12CE041463046BF
:10495000756801F0F7FC10B13FA3AB220CE02046D4
:1049600001F028FB344609E06FF02101204601F0F8
:10497000E9FC18B138A3B52271A114E06068D9F838
:104980000010E9607B4900260968296106704680AD
:10499000FF2028726E813946204601F0D3FC30B1E9
:1049A0002DA3EC2274A151A006F02EFA0AE00121F9
:1049B000CDE90061FF230022CDF808A0254920465B
:1049C00000F0EBFA2046BDE8FE4F01F0F3BA2DE906
:1049D000FE4391460E46074600222421012001F0A5
:1049E0003EFB05002DD06889242806D21AA34FF477
:1049F000A2726AA13DA006F007FA6C68D7F804809D
:104A00001C22267084F801900026A680E680686843
:104A10007968083006F06CF966806989204600F0F4
:104A20009BF96080D8F80C0002900120CDE900606D
:104A3000FF2302AA0021284600F019FB284601F0B6
:104A4000B9FABDE8FE830A460321C0E70A460B21F6
:104A5000BDE70000E40000202E2E5C4C5749505C5E
:104A60006C7769702D312E342E315C7372635C6308
:104A70006F72655C697076345C69636D702E63007B
:104A800069636D705F696E7075743A206D6F7669D9
:104A90006E6720702D3E7061796C6F616420746F59
:104AA00020697020686561646572206661696C6563
:104AB000640A0000636865636B2074686174206633
:104AC0006972737420706275662063616E20686F0E
:104AD0006C64207374727563742074686520494334
:104AE0004D50206865616465720000004173736514
:104AF0007274696F6E2022257322206661696C656D
:104B000064206174206C696E6520256420696E20C4
:104B100025730D0A0000000069636D705F696E7097
:104B200075743A20636F7079696E6720746F206EB8
:104B300065772070627566206661696C65640A003D
:104B400069636D705F696E7075743A207265737415
:104B50006F72696E67206F726967696E616C207031
:104B60002D3E7061796C6F6164206661696C65646B
:104B70000A000000E000002043616E2774206D6F82
:104B80007665206F7665722068656164657220695C
:104B90006E207061636B657400000000636865637C
:104BA0006B2074686174206669727374207062751A
:104BB000662063616E20686F6C642069636D70208D
:104BC0006D6573736167650018B50022ADF800204C
:104BD00010F001030CD000290ADD10F8014B8DF80C
:104BE0000140491E04E000BF30F8024B891E2244F8
:104BF0000129F9DC002902DD00788DF80000BDF8FC
:104C000000001044010C11FA80F0010C11FA80F040
:104C100023B1C1B2C0F3072040EA012080B218BD21
:104C20002DE9F04700249946174688462646054652
:104C3000DDF820A013E069896868FFF7C5FF20440C
:104C4000010C11FA80F4A87AC00707D0C6F1010060
:104C5000C6B2E0B2C4F3072141EA00242D68002D5A
:104C6000E9D126B1E0B2C4F3072141EA0024D8F823
:104C7000000014FA80F101EB1041386811FA80F15C
:104C800001EB1044484600F095FF0444504600F004
:104C900091FF2044010C11FA80F0010C11FA80F010
:104CA000C04380B2BDE8F0872DE9F05F00249B4649
:104CB00092468946274605460B9E26E0B5F80A80AF
:104CC000B04500D9B04641466868FFF77DFF04440F
:104CD000A6EB080086B247F6FF70864206D333A3E0
:104CE0004FF4B1723DA140A006F08EF8200C10FAEE
:104CF00084F4A87AC00707D0C7F10100C7B2E0B2B8
:104D0000C4F3072141EA00242D680DB1002ED5D14E
:104D100027B1E0B2C4F3072141EA0024D9F800002A
:104D200014FA80F101EB1041DAF8000011FA80F179
:104D300001EB1044584600F03DFF04440A9800F08F
:104D400039FF2044010C11FA80F0010C11FA80F0B7
:104D5000C04380B2BDE8F09F10B5FFF735FFC043F8
:104D600080B210BD70B500242646054613E069895F
:104D70006868FFF729FF2044010C11FA80F4A87A33
:104D8000C00707D0C6F10100C6B2E0B2C4F30721E4
:104D900041EA00242D68002DE9D126B1E0B2C4F328
:104DA000072141EA0024E04380B270BD2E2E5C4C06
:104DB0005749505C6C7769702D312E342E315C73FD
:104DC00072635C636F72655C697076345C696E6592
:104DD000745F63686B73756D2E63000064656C654A
:104DE0007465206D65000000417373657274696FAE
:104DF0006E2022257322206661696C6564206174CF
:104E0000206C696E6520256420696E2025730D0A6B
:104E10000000000010B50246A7480AE090F82910EB
:104E2000C90706D08168136844680B400C40A34250
:104E30000AD000680028F1D1A048006818B190F8A5
:104E40002910C90700D1002010BD2DE9F05F456889
:104E500006460F4628780421B1EB101F0FD100F051
:104E60000F004FF6FF7101EA8004688800F0A4FE8D
:104E700001467089A04202D33089884203D230466D
:104E800001F098F853E0304601F0FFF98C482969A9
:104E9000A0F1040A0160EA68DFF81CB24FF00108D3
:104EA0003C468146CAF8002094F82900C0070CD07F
:104EB000201D0AD0606840B1D9F80020824212D08B
:104EC0002146104600F046F968B9B8F1000F04D049
:104ED0004FF00008DBF8004000E02468BC4200D13D
:104EE0002468002CE0D1D0463946DAF8000000F002
:104EF00031F90028C3D198F80000C0F303100E2840
:104F0000BDD0002CBBD0E88830F0C00005D03046C2
:104F100000F0C2FB06000AD07568694C3946103CA7
:104F20003046C4E9017501F0D5FE18B12DE000202E
:104F3000BDE8F09F687A012814D006280DD011280A
:104F400006D03946D9F8000000F004F978B119E02C
:104F50003946304605F00FF917E03946304603F080
:104F600087FD12E039463046FFF796FC0DE099F8D0
:104F70000000C0F303100E2804D0022130467560F3
:104F8000FFF761FD304601F015F800206060A06079
:104F9000C8F80000C9F80000C9E72DE9F84F054638
:104FA000DDE90BA6C089DDF828B09846174689468A
:104FB000012806D043A34FF427724CA14EA005F060
:104FC00023FF002F3ED01421284601F0BBF918B171
:104FD0006FF00100BDE8F88F68896C68142806D26C
:104FE00038A340F2C9224FA143A005F00DFF84F879
:104FF000088084F809A0386820614520207084F872
:1050000001B0288900F0D6FDDFF8B48060804FF051
:10501000000AA8F11008A4F806A0B8F8000000F0F3
:10502000C9FDA080B8F80000401CA8F80000B9F144
:10503000000F02D0D9F8000000B97068E060A4F851
:105040000AA003E068686F4600690090308C40B1A8
:105050002989814205D93A463146284600F0CEFCDE
:10506000B8E773693A46294630469847B2E72DE9D2
:10507000FE430446DDE90A65C0899846174689461D
:10508000012806D00FA340F2393218A11AA005F06A
:10509000BBFE3846FFF7BEFE50B10096CDE9015089
:1050A00043463A4649462046FFF777FFBDE8FE8370
:1050B0006FF00300FAE70000F8000020FC00002079
:1050C000E40000202E2E5C4C5749505C6C776970D0
:1050D0002D312E342E315C7372635C636F72655CAC
:1050E000697076345C69702E63000000702D3E722A
:1050F0006566203D3D203100417373657274696FB0
:105100006E2022257322206661696C6564206174BB
:10511000206C696E6520256420696E2025730D0A58
:1051200000000000636865636B207468617420662A
:105130006972737420706275662063616E20686F97
:105140006C64207374727563742069705F68647234
:1051500000000000421C12D088B191F8292092076B
:105160000BD54B68834208D0896800EA01020B40E6
:105170009A4202D10143491C01D00020704701200E
:10518000704710B500F01AFD4FF00041084207D0FB
:105190004908FBD106E0084201D0002010BD4908B3
:1051A0000029F8D1012010BD2DE9FF410D4690F8EE
:1051B00000206946A2F130030A2B5ED200240A23A4
:1051C000302A06D110F8012F782A09D0582A07D0A2
:1051D0000823A2F13006092E04D804FB036414E06E
:1051E000102312E0102B13D1A2F16106052E03D972
:1051F000A2F14107052F0BD8192E01D8612600E036
:105200004126921B0A3242EA041410F8012FE0E70B
:105210002E2A0DD09AB1202A11D00C2A0FD00A2A9A
:105220000DD00D2A0BD0092A09D00B2A25D106E072
:1052300003AA914221D210C110F8012FBAE76846A3
:10524000081A012101EBA000052824D2DFE800F0B4
:105250001529030A1300B4F1807F0ED2009844EAA6
:1052600000641EE0B4F5803F07D200980199000663
:1052700040EA01400DE0FF2C03D9002004B0BDE856
:10528000F08100980199000640EA0140029940EA45
:105290000120044305E02BA3F32235A137A005F03C
:1052A000B3FD1DB1204600F089FC28600120E5E730
:1052B00008B56946FFF778FF08B1009808BD4FF0C0
:1052C000FF3008BD2DE9FC430023006889466C4689
:1052D0001E464FF00A0C01AD0090002094F80080AB
:1052E000B8FBFCF70CFB1787B8FBFCF884F80080D0
:1052F00030372F54401CC0B2B8F1000FEED106E099
:105300001F465B1C974209DA2F5C01F8017B401EA7
:10531000C0B2F5D218465B1C904202DB0020BDE80B
:10532000FC832E20761CF6B2641C01F8010B042EBF
:10533000D3D3002001F8010C4846F0E710221A49A7
:10534000C0E700002E2E5C4C5749505C6C776970AA
:105350002D312E342E315C7372635C636F72655C29
:10536000697076345C69705F616464722E630000FA
:10537000756E68616E646C656400000041737365EE
:105380007274696F6E2022257322206661696C65D4
:1053900064206174206C696E6520256420696E202C
:1053A00025730D0A000000009CB2002070B5044671
:1053B000EE480D464168A14202D12168416009E0F2
:1053C00035B9EBA340F23912F4A1FBA005F01CFDA6
:1053D000206828602146BDE87040052000F04CBCE4
:1053E0002DE9F047054600240F46A94205D1E0A368
:1053F000A522FCA1F0A005F007FD47B13868A8423E
:1054000005D0DBA3A722FAA1EBA005F0FDFC6E6896
:105410004FF480387068818800291AD1006868606C
:10542000142205F10801706805F062FC0121304684
:10543000FFF70CFB304601F019F90446404505D34F
:10544000CBA3B622EFA1DCA005F0DEFC304600F0D5
:10545000B1FD6E6812E07068B1460668484601F01A
:1054600005F90444444505D3C1A3C622E5A1D2A051
:1054700005F0CAFCA4B2484600F09CFD002EEAD11B
:1054800039462846FFF792FFB84D2888A04205D23A
:10549000B7A3CC22E3A1C8A005F0B6FC2888001B66
:1054A00028802046BDE8F08770B5B04800254468E4
:1054B0000BE0E07F20B1401EE0772546246804E041
:1054C000204624682946FFF78BFF002CF1D170BDE0
:1054D0002DE9F041A54F88460646002400221146DA
:1054E000154678681AE04369D6F80CC0634509D1BF
:1054F0008369D6F810C0634504D18389B6F804C027
:10550000634507D06D1C22B1C37F92F81FC063456D
:1055100000D80246036803B1014618460028E2D1CC
:105520001AB11046FFF75CFF0444444501DA012D2F
:10553000D4DC2046BDE8F0812DE9F0474C680646F2
:10554000884600250127608800F036FB217801F0AD
:105550000F01494200EB8109E08800F02DFBC004F7
:10556000D8F80440010C0020206001EB0900A18064
:1055700083B2E38072681FE05068B0F804C06145F0
:105580000FD222604DB1B5F806C0614578D380884E
:10559000834275D8C5F8008001E0C6F804806AB17E
:1055A0002BE06DD0C28891426AD31DB1EA88624572
:1055B00000D0002702680546002ADDD195B1E888B1
:1055C000A188884206D96AA340F293129CA17AA0CE
:1055D00005F01AFCC5F80080E888A18888420CD044
:1055E00000270AE0706830B161A340F29B129CA1D1
:1055F00071A005F009FCC6F80480B07FC0073DD05B
:10560000002F3AD072685068808838B920462168E7
:1056100008E04C68C088A188884201D000272CE0AF
:10562000216820460029F4D1002F26D032B950A39A
:105630004FF4DE7298A160A005F0E6FB7068406848
:10564000A04206D14AA340F2BD1293A15AA005F090
:10565000DBFB206830B146A340F2BF1292A156A0F6
:1056600005F0D2FBE088B18B884206D040A340F21F
:10567000C11296A150A005F0C7FB384612E7FFE71C
:10568000404600F0F3FF39490A88101A0880404666
:1056900000F090FC002005E72DE9F14F4FF0000AE3
:1056A00000984568287800F00F0005285CD1E8884C
:1056B00000F082FAC0044FEA1049688800F07CFAD2
:1056C000297801F00F01494200EB81001FFA80F8B0
:1056D000009800F0CBFF254E0746308838440A2852
:1056E00009D939462846FFF7F3FE00283CD0308818
:1056F00038440A2838D84FF0000B74680DE0606910
:10570000E968884207D1A0692969884203D1A08944
:10571000A988884204D0A2462468002CEFD106E074
:105720002CB1E88800F048FAC0041ED0F1E0052052
:1057300000F083FA04000AD139462846FFF7C8FE74
:10574000B84211DB052000F078FA04000CD02021CB
:1057500005F0E7FA0320E0777068206014222946FC
:1057600004F108007460D2E01DE1C7E0E800002009
:105770002E2E5C4C5749505C6C7769702D312E345D
:105780002E315C7372635C636F72655C6970763432
:105790005C69705F667261672E63000073616E6999
:1057A000747920636865636B206C696E6B65642037
:1057B0006C69737400000000417373657274696FE3
:1057C0006E2022257322206661696C6564206174F5
:1057D000206C696E6520256420696E2025730D0A92
:1057E000000000007072657620213D206970720013
:1057F000707265762D3E6E657874203D3D2069702F
:105800007200000070627566735F66726565642081
:105810002B20636C656E203C3D20307866666666A2
:105820000000000069705F72656173735F7062757C
:1058300066636F756E74203E3D20636C656E00007C
:10584000636865636B20667261676D656E74732053
:10585000646F6E2774206F7665726C617000000053
:105860006E6F2070726576696F75732066726167FE
:105870006D656E742C2074686973206D7573742067
:10588000626520746865206669727374206672614F
:10589000676D656E7421000073616E6974792063B1
:1058A0006865636B0000000076616C696461746513
:1058B0005F646174616772616D3A6E6578745F7080
:1058C000627566213D4E554C4C00000076616C6956
:1058D000646174655F646174616772616D3A64618B
:1058E00074616772616D20656E64213D64617461ED
:1058F0006772616D206C656E00000000E08900F049
:105900005BF9C00405D01422294604F1080005F013
:10591000EFF9308838443080A879800606D4A07F1B
:1059200040F00100A07709EB0800A0832046009911
:10593000FFF702FE002834D0A08B14221430A0837D
:10594000606804F10801456828462F6805F0D0F921
:10595000A08B00F02FF96880A5F806B0A5F80AB072
:1059600014212846FFF7F8F968816FF01309D4F87D
:10597000048009E0494638467D6800F0E3FC39467A
:10598000404600F082FE2F68002FF3D1514620469A
:10599000FFF70CFD404600F069FE3188081A3080A0
:1059A0004046BDE8F88F009800F004FB0020F8E7BF
:1059B00010B5040008D1AFF2482340F279226EA15D
:1059C000AFF20C2005F020FA2146BDE81040062079
:1059D00000F052B910B5040008D1AFF26C2340F2C8
:1059E000832268A1AFF2302005F00EFA606908B199
:1059F00000F0E0FA2046BDE81040D9E72DE9F74F66
:105A00008AB004460B9814270025068C606806901F
:105A1000C08800F0D1F8C0F30C0B00F400500890DF
:105A200020891438143E1FFA80F8F01706EB5070E6
:105A3000C0F3CF00079605908FE00799884501DCF9
:105A4000012000E00020089ACBF30C0111430491DF
:105A5000002827D0404680B2039000221421022063
:105A600000F0FDFA5FEA000922D06089142808D20C
:105A7000AFF2043340F2FB2245A1AFF2C42005F09F
:105A8000C3F91422D9F80400069905F031F9D9F8C0
:105A9000040002906068384460606089C01B6081C7
:105AA000039E31E041F4005004900598C000D2E715
:105AB0004FF0FF300DB0BDE8F08F6589B54200D9D9
:105AC000354605B3062000F0B8F807004BD06068F3
:105AD000CDE900053B4602222946032000F0A3FB46
